:020000040000fa
:080000000001040000000000f3
:020000040000fa
:04000800669a0000f4
:020000040000fa
:04000c00789a0000de
:020000040000fa
:04001000889a0000ca
:020000040000fa
:040014006e9a0000e0
:020000040000fa
:04001800809a0000ca
:020000040000fa
:04001c0034020000aa
:020000040000fa
:0400200034020000a6
:020000040000fa
:0400240034020000a2
:020000040000fa
:04002800340200009e
:020000040000fa
:04002c00340200009a
:020000040000fa
:040030003402000096
:020000040000fa
:0400340042930000f3
:020000040000fa
:04003800340200008e
:020000040000fa
:04003c00340200008a
:020000040000fa
:040040003402000086
:020000040000fa
:04004400e296000040
:020000040000fa
:04004800340200007e
:020000040000fa
:04004c00340200007a
:020000040000fa
:040050003402000076
:020000040000fa
:0400540028850000fb
:020000040000fa
:04005800d28400004e
:020000040000fa
:04005c00340200006a
:020000040000fa
:040060003402000066
:020000040000fa
:040064003402000062
:020000040000fa
:04006800340200005e
:020000040000fa
:04006c0054710000cb
:020000040000fa
:040070003402000056
:020000040000fa
:040074003402000052
:020000040000fa
:04007800340200004e
:020000040000fa
:04007c00340200004a
:020000040000fa
:040080003402000046
:020000040000fa
:040084003402000042
:020000040000fa
:04008800340200003e
:020000040000fa
:04008c00340200003a
:020000040000fa
:040090003402000036
:020000040000fa
:040094003402000032
:020000040000fa
:04009800340200002e
:020000040000fa
:04009c00340200002a
:020000040000fa
:0400a0003402000026
:020000040000fa
:0400a4003402000022
:020000040000fa
:0400a800340200001e
:020000040000fa
:0400ac00340200001a
:020000040000fa
:0400b0003402000016
:020000040000fa
:0400b4003402000012
:020000040000fa
:0400b800340200000e
:020000040000fa
:0400bc00340200000a
:020000040000fa
:0400c0003402000006
:020000040000fa
:0400c4003402000002
:020000040000fa
:0400c80034020000fe
:020000040000fa
:0400cc0034020000fa
:020000040000fa
:0400d00034020000f6
:020000040000fa
:0400d40034020000f2
:020000040000fa
:0400d80034020000ee
:020000040000fa
:0400dc0034020000ea
:020000040000fa
:0400e00034020000e6
:020000040000fa
:0400e40034020000e2
:020000040000fa
:0400e80034020000de
:020000040000fa
:0400ec0034020000da
:020000040000fa
:0400f00034020000d6
:020000040000fa
:0400f40034020000d2
:020000040000fa
:0400f80034020000ce
:020000040000fa
:0400fc0034020000ca
:020000040000fa
:0401000034020000c5
:020000040000fa
:0401040034020000c1
:020000040000fa
:0401080034020000bd
:020000040000fa
:04010c0034020000b9
:020000040000fa
:0401100034020000b5
:020000040000fa
:0401140034020000b1
:020000040000fa
:0401180034020000ad
:020000040000fa
:04011c0034020000a9
:020000040000fa
:0401200034020000a5
:020000040000fa
:0401240034020000a1
:020000040000fa
:04012800340200009d
:020000040000fa
:04012c0080850000ca
:020000040000fa
:040130003402000095
:020000040000fa
:040134003402000091
:020000040000fa
:04013800340200008d
:020000040000fa
:04013c003402000089
:020000040000fa
:040140003402000085
:020000040000fa
:040144003402000081
:020000040000fa
:04014800340200007d
:020000040000fa
:04014c003402000079
:020000040000fa
:040150003402000075
:020000040000fa
:040154003402000071
:020000040000fa
:04015800340200006d
:020000040000fa
:04015c003402000069
:020000040000fa
:040160003402000065
:020000040000fa
:040164003402000061
:020000040000fa
:04016800340200005d
:020000040000fa
:04016c003402000059
:020000040000fa
:040170003402000055
:020000040000fa
:040174003402000051
:020000040000fa
:04017800340200004d
:020000040000fa
:04017c003402000049
:020000040000fa
:040180003402000045
:020000040000fa
:040184003402000041
:020000040000fa
:04018800340200003d
:020000040000fa
:04018c003402000039
:020000040000fa
:040190003402000035
:020000040000fa
:040194003402000031
:020000040000fa
:04019800340200002d
:020000040000fa
:04019c003402000029
:020000040000fa
:0401a0003402000025
:020000040000fa
:0401a4003402000021
:020000040000fa
:0401a800340200001d
:020000040000fa
:0401ac003402000019
:020000040000fa
:0401b0003402000015
:020000040000fa
:0401b4003402000011
:020000040000fa
:0401b800340200000d
:020000040000fa
:0401bc003402000009
:020000040000fa
:0401c0003402000005
:020000040000fa
:0401c4003402000001
:020000040000fa
:0401c80034020000fd
:020000040000fa
:0401cc0034020000f9
:020000040000fa
:0401d00034020000f5
:020000040000fa
:0401d40034020000f1
:020000040000fa
:0401d80034020000ed
:020000040000fa
:0401dc0034020000e9
:020000040000fa
:0401e00034020000e5
:020000040000fa
:0401e40034020000e1
:020000040000fa
:0401e80034020000dd
:020000040000fa
:0401ec0034020000d9
:020000040000fa
:0401f00034020000d5
:020000040000fa
:0401f40034020000d1
:020000040000fa
:0401f80034020000cd
:020000040000fa
:0401fc0034020000c9
:020000040000fa
:10020000efed24000eff27000e0188000000000023
:10021000000020000000e000020032000001200089
:100220002002880014000700910007000000e00091
:1002300003003a00a0372900010020000200370027
:100240000000200001002000810f7000010032003a
:1002500014000700000020000000e000020032004f
:1002600000000200000000006c79020000000000a5
:100270000040da000000fe004440a900a060210018
:100280000000e00003003200002020009001880000
:100290004440a800000006008a1f78008b1f7800e9
:1002a00000000600a1028800800478000000eb0036
:1002b0001f003700e284440054a0b4009905ba003e
:1002c000e284440054a0b4009906ba00e2844400d9
:1002d00054a0b4000006eb00476fde00fd07b2003b
:1002e000ae018800636ce10003003a00eaff0700fa
:1002f0000000eb000e003700606ce10008003a00df
:10030000004deb000a05e800020039003420ec0043
:100310000af0a0008b05e900f9ff3e000400370059
:100320006168e100010032000086eb000b0007006d
:1003300019c7ba001905ba000e04e00003003a001c
:100340000a00e000dbff3a0000000600fe07b200f2
:10035000ae0288008a047800f5ff37000cd0a300b5
:10036000e20f4d001c00390089027800354dba00bb
:100370000a05e800020039003420ec000af0a00071
:100380008b05e9000f003200254dba000a05e80090
:10039000020039003420ec000af0a0008b05e900cf
:1003a000080032000c00e0000600320015cdba0053
:1003b0000a05e800020039003420ec000af0a00031
:1003c0008b05e9008984e80054a0b4000b00e0002c
:1003d000e2ff3a00000006009902ba00055d7800cd
:1003e0008b05e900f7ff3200c82ade00055d7800c2
:1003f0008b05e900f3ff32000c00e000f1ff320052
:1004000019ddba00eeff3700ae4e04000000000018
:10041000286e040000000000848704000000000033
:10042000668704000000000024990400000000001a
:10043000a279040000000000847a0400000000009b
:10044000667b040000000000d67c04000000000071
:10045000187d040000000000587d0400000000002a
:10046000a0050400000000000040da000000fe00cb
:10047000000005000001be00190007000470a7007d
:1004800003f0a10003f8a30013003a006509b100ce
:1004900010003200090035006928e1000200350033
:1004a0000100280000000500000040008180480095
:1004b0008502e900fcff3a0000000600f88f4200c8
:1004c000050035008100d1000080d3008502e800de
:1004d000fcff3a00000006008000eb000000050071
:1004e000c70ade00f107b200f50fb20008003200c3
:1004f000e1cf4200020032000170a000240005009c
:10050000810f70000100320004080500440005005e
:10051000810f700002003a00140005008502e90016
:100520000000400081c04800fcff3b000170a000bb
:10053000240005006022b800060220000000d00060
:100540008180d2000482d2008582d2000000a00007
:100550000202520083825a0003003100020242006c
:1005600083824a000000a1000603e900f3ff3a007d
:1005700000000600efff07000400be0000000600b8
:100580000003b1000b0035009000b10008003400fa
:100590008000b100070035005000b10004003400b5
:1005a000b001b100030035005000b10001003c0073
:1005b00010000500000005000900370030427800f7
:1005c000b1417800834f5200040032001000200037
:1005d000060031000080eb00000006000201e90087
:1005e0000200e000f5ff3a000000eb00000006000a
:1005f0008001780002003700b15978000201e9005b
:100600000200e000fcff3a000000060080017800d4
:1006100002003700815978000201e9000200e00081
:10062000fcff3a000000060000017800820178001b
:100630003204e000fdff3a0003017800b141780088
:10064000035978000304e000fcff3a0000000600b4
:1006500000017800b1417800035978000304e000fc
:10066000fcff3a00000006008000780001017800dd
:100670003104e000fdff3a000000510000000600d8
:100680000c003700b0417800b1cf510006003200b5
:10069000100020009542780094cf52000b003100ea
:1006a0000080eb00000006000304e00006003200ba
:1006b0000201e90001027800800278000200e000f7
:1006c000f0ff3a00000005000000eb00000006000b
:1006d000889fbe0081047800194478000804e00077
:1006e0000e00320006003700d24178000304e0001b
:1006f0000a003200d1cf1100fbff32000000e800f9
:100700008800fb00ff0007000000e000030032004b
:100710000901780080007800f3ff37004f04be0025
:1007200000000600e4874700889fbe008a9fbe0045
:100730008c1f78008e1f7800000578000107780074
:10074000020678000e00e00001003a006e875700b4
:100750008a0578008b047800890578003b4478008e
:100760000800fb00d20007000000e000f9ff3a009b
:10077000d0c2b300804f54000300320000c0e90033
:10078000804f540002003a008904e800010037005d
:10079000004478000c0178008e0078000900780091
:1007a000290007009e8f540001003a000a0f7800cc
:1007b0009e0f550003003a00e00f5000e08f5800f4
:1007c0000f003a00b2c2b300824f540004003a0056
:1007d000e00f5000e08f580015003d000800370082
:1007e000d2c2b300824f540011003a000200200030
:1007f00003002800820f5000838f58000a00360043
:1008000020022000c0768a00f0ff2f00f1ff2700b1
:10081000d2c2b300824f540005003a00000020000d
:10082000010028000200370060001000e08018007e
:100830004f0778004f0678004f05be004f04be00fa
:100840004f00b10000000600ee874700889fbe0001
:100850008a9fbe008c9fbe008e1f7800f0b79f005d
:100860000106780082057800000478000805780009
:100870000a047800b84678000d00fb008c000700e1
:100880000000e000f9ff3a00d0c2b30080cf56006c
:100890000300320000c0e90080cf560002003a0099
:1008a0000a05e80001003700804678000b00e000f0
:1008b00005003500e18f55000300320040022000a2
:1008c000808f5500060034006044b8000c00e00042
:1008d000700032007fb09700000e78006d00370086
:1008e0000b00e0000e003200f08f55001a003a00b5
:1008f00000c3b3009a4f100017003a001a4090004e
:1009000081c7b300814f50000300320081c5b3009e
:10091000814f500010003a000a85e8000e003700b1
:10092000ab00200000c3b3009a4f10000a003a0049
:100930001a40900081c7b300814f5000040032007c
:100940008b00200081c5b300814f500002003a00a7
:100950000a85e8000b0120000a00780000027800f8
:100960000400780001c3b300b0cf1000fbff3200d9
:10097000040778006044b800b4b79f000d0037004a
:1009800081db240081405000c1ef9f006159b90014
:100990000800be00630407004fea97000401fb0053
:1009a000cf91de00c8b79f00d9b79f000204400076
:1009b000838448008e0278003e00fb0085bf9f00c4
:1009c000430007000b0178008000780080db2400e2
:1009d0004e0207008fba97000000e000e8ff3a00df
:1009e0003fb29700850f550005003a006044b800fb
:1009f0000c00e00027003200ffb29700240037000f
:100a000004825200d0dd240060c07d000000fb00a5
:100a1000000252001700330011003a004fe997001e
:100a20000200fb00cf80de000000540081805c00eb
:100a3000800f5400818f5c00090039006159b900b2
:100a400085bf9f00bbfe07008fba97004fb197008c
:100a5000dfb19700820f5000838f580005003200ed
:100a600020022000c0768a000084eb008084eb0026
:100a700005003700d0c2b30080cf560002003a0014
:100a800060041400e0841c000c00e000010032004f
:100a9000050e78000800be004f0778004f06be0024
:100aa0004f05be004f04be00ef00b100000006007d
:100ab0006900e100040035006d00e100030034002e
:100ac0000002b10001003200000005001000050026
:100ad000800078001104b100030035009101b100dd
:100ae00001003c000050a00000000600d07682000b
:100af0000000e000010032000000010080ed240051
:100b0000000006000001eb00030037000201e800ce
:100b10000404e000070032006103b8006112b8006d
:100b20008601420066427a00814f5200f7ff3a0088
:100b3000010037008001eb00030078000000060090
:100b4000881f78000204780008017800a8fe0700da
:100b5000080040004f047800000006000000fa0082
:100b6000881f780000047800ea8157003fb9970099
:100b700088007800005a2000070007000000e0000d
:100b8000020035008040eb00017478004f047800cb
:100b90000080fa00000006006200fa00889fbe0094
:100ba0008a1f78000005780081047800020478002c
:100bb0008300780080f92f000f004000c803070071
:100bc0009a979f00a9979f000000eb00b09f9f009d
:100bd0001885fb008a04fb000a05ea004f55de0079
:100be00050022000808f54000d003200e10f5500ac
:100bf0000b003a000a017800880078002f909700d7
:100c00009f91970003000100a0979f000000e00063
:100c10008e0032003f9897000000e800b09f9f00d0
:100c20000a04440050022000808f54000400320067
:100c30000900e000e6ff3a003f9897008400370083
:100c40000000eb00909f9f00809f9f00f0979f0007
:100c5000e0979f00d0979f00c0979f000700370044
:100c6000a1e824000100500000004000e1e724005a
:100c700061007800df98970001007000d09f9f000e
:100c80008804780009047800384578008a00fb0061
:100c9000a0e824009bff07000000e000f0ff3a00fe
:100ca000a1c2b300814f55000e003a00cf889700d3
:100cb0000180e900c08f9f0010007800c09f9f0056
:100cc0000000e00005003d000000ea00c09f9f001a
:100cd0005f9897000020a000d09f9f000904e800c3
:100ce0000f003700c09f9f000000eb000500370099
:100cf000f2ff2700820f5000020032006a01b900a3
:100d0000028040000904780088047800b900fb00e4
:100d10000103b100e98f5000f5ff3600c09f9f002e
:100d2000e0c2b300984f1000020032000080eb00d8
:100d300019003700a0c2b300d84f100007003a00d6
:100d4000cf8897000180e900c08f9f0010007800d5
:100d5000a09f9f000804e800100037000000eb008f
:100d6000a09f9f008800780005003700f3ff270050
:100d7000830f5000020032006a02b90004004100f3
:100d800001047800880078003101fb000203b10003
:100d9000e90f5100f5ff3600a09f9f0098447800ae
:100da0008900fb0060e7240056ff07000000e00018
:100db000020032000804e800010037008044eb0024
:100dc000c97f9f0080c6b30080cf540004003a0062
:100dd00098cf14000a003a00664050000600370021
:100de000c0c6b30080cf540005003a0098cf14006d
:100df00003003a0065404000c07f9f000804e800ff
:100e00001801fb00e3fb2f008f81410081f92f00c7
:100e10008f804000a0f92f000f0040001000070055
:100e20000000e00009003a00e1fb2f008f80400045
:100e3000a0f92f000f0040006d0207000000e00045
:100e4000020035000804e80061ff37000080eb0075
:100e50004f0578004f04be000080fa000000060035
:100e6000889fbe008a1f780000047800e0c6b300a7
:100e7000804f5100c100320015003c006b40500013
:100e8000804f5100240032000a003c0070405000a6
:100e9000804f5100fa00320065404000804f510001
:100ea0006800320050c2b300804f51000b013a007d
:100eb0000701370040c6b300804f51001b003200cd
:100ec00065404000804f510004013a001700370090
:100ed00030c7b300804f5100e900320007003c00ea
:100ee00064405000804f5100560032000040e8003e
:100ef000804f5100f9003a00d300370050c7b300cb
:100f0000804f51004f00320063404000804f51003d
:100f1000f2003a004b0037001181e90082087800a6
:100f20007800900012417800ea00370028609000b5
:100f3000c4c6b300844f500007003a001102780085
:100f400064005200800878001002be004fabde0043
:100f5000860378001100370014c7b300844f500097
:100f600003003200a4c6b300844f500006003a00cc
:100f70001102780068005200800878003002be003c
:100f80002003be00050037001180e90080087800ca
:100f900010027800cfa2de00612bb900049cbe00d5
:100fa0000694be002860900081c6b300814f5000b7
:100fb0000d00320021c6b300814f500004003a00fa
:100fc0000402fb00cfa2de00612bb900080037004d
:100fd00041c7b300814f500003003200e6c040001b
:100fe000814f500004003a00cfa2de00612bb9000f
:100ff000049cbe000694be003802be002803be005a
:1010000078009000d1c2b300e00f5200e08f5a0088
:10101000e00f5b00e08f5b00080035008810900057
:101020000118a30002003200b1c2b3000300370070
:101030000108a3004c00320001c2b30081717800a6
:101040004700370028609000c4c6b300844f5000aa
:1010500006003a001102780064005200800878000f
:101060001002be006033b8001100370014c7b3008f
:10107000844f500003003200a4c6b300844f5000d8
:1010800006003a00110278006800520080087800db
:101090003002be002003be00050037001180e900c9
:1010a00080087800100278008002eb006033b800fe
:1010b000049cbe000694be002860900081c6b30068
:1010c000814f50000d00320021c6b300814f500007
:1010d00004003a000482fb008002eb006033b80099
:1010e0000800370041c7b300814f500003003200b1
:1010f000e6c04000814f500004003a008002eb003f
:101100006033b800049cbe000694be000810900036
:101110000038a300140032003802be002803be00cd
:10112000e00f5200e08f5a00e00f5b00e08f5b00a1
:101130000d00320080c7b300804f51000300320021
:1011400080c5b300804f510007003a00780090003e
:1011500001c3b300817178000000e800827178005b
:101160000000e80070049800780090008081410041
:1011700063049800824078003e00370028619000a8
:10118000c3c6b3001180e900834f51002200320032
:101190000a003c00e4c15100834f51002500320099
:1011a00083c1e800834f510013003200e8c15100b1
:1011b000834f51001e003a000a00370043c7b300b6
:1011c000834f51001b003200e6c14100834f5100a4
:1011d00018003200e9c15100834f510014003a0059
:1011e000050037008008780010007800485c900007
:1011f0000848780041003700800878001000780027
:10120000680a9000cfa2de00612bb9000498be00ee
:101210000690be0039003700800878001000780082
:1012200068099000cf91de000288be0033003700cd
:101230001180e9008008780010007800680c9000a8
:10124000080878002d0037001180e9008008780038
:1012500010027800cfa2de00612bb900049cbe0012
:101260000694be00780090008081410063049800dd
:1012700081c7b300080078002e0007001f00370068
:101280001180e90080087800100578006a04980051
:10129000d80c90000900e00004003d000a0078002e
:1012a000f1fc07008004780007003700090178008e
:1012b0008000eb000a007800140007000000e00046
:1012c000010032008a045000190c98000b0037000e
:1012d0007800900082717800060037007800900056
:1012e000808141000204e00001003a0052c2b300d4
:1012f000824978000000e800700498000000eb00cc
:101300004f0578004f04be000000060003003700c0
:10131000b0cf1000050032000201e9008001780022
:101320000200e000faff3a00000005000300780028
:1013300000000600fc874700889fbe008a9fbe0011
:101340008c9fbe008e1f78000006780080c5b30019
:1013500080cf50000a0032007740400080cf50001c
:101360000a0032006940400080cf50000b0032007c
:1013700050e4240080bf9f00ae0020000a00370028
:1013800042e3240082bf9f000600370053e424009c
:1013900083bf9f008e0020000300370054e4240028
:1013a00084bf9f000e0120003c02be002c03be0043
:1013b0000605be000404be0040c6b30080cf500046
:1013c000030032006540400080cf50000b003a001f
:1013d000e00f5200e08f5a00e00f5b00e08f5b00ef
:1013e00006003d006000b8006011b8000404500021
:1013f000858458000605590087855900e80f570075
:101400000400320040002000f00f570038003a007e
:101410000100370030002000e00f5400e08f5c0036
:10142000e00f5d00e08f5d0004003a00dc089000f2
:101430008d0120000100e000060032008e00e9006e
:10144000888060008fba9700e5c07800f1ef9f00b8
:101450007d012000800078008100e9000500330054
:101460008b05d1000a85d3008984d3000884d3007a
:10147000f9ff3700089ebe000a96be001200370032
:101480008d06e9008e00e900848060000fb99700a6
:10149000e2c1780082fd2f000f01410003f17e00c0
:1014a000800078008100e900050033008783d100c7
:1014b0000683d3008582d3000482d300f9ff37006e
:1014c000049ebe000696be003c02be002c03be0079
:1014d000e00f5200e08f5a00e00f5b00e08f5b00ee
:1014e0008b0034000d00e000e5ff3c008800370071
:1014f0002c60900081c6b300814f50000b00320079
:1015000006003c000004e00008003200e6c0500085
:10151000814f50004e003a0004003700c1c6b300ae
:10152000814f50004a003a00210037000800e000d7
:1015300004003a005c0890008d0120000000e000eb
:1015400006003200110009000e84d8000fb9970080
:10155000e2c07800f1ef9f007d012000110009003a
:101560000e84d8000a003700110009000e04d800cc
:101570008d06e9000e81b900020454008fb897006f
:1015800061417c0081fd2f008f80400082f07e0051
:10159000000478000800e000020032000d00e000c6
:1015a000f1ff3c00cfc4de00614db90025003700db
:1015b000e00f5400e08f5c0004003a005c089000eb
:1015c0008d0120000000e000070032006171b900c9
:1015d0000800be00e7fb07008fb99700e3417800e1
:1015e000f3ef9f007d0120006171b9000800be008b
:1015f000d0fb07000b0037006171b9000800be0086
:10160000390107008d06e90000f1b9000204540019
:101610000fba9700e4427c0084fd2f000f024200c5
:1016200005f27e000004be00e00f5000e08f58007d
:10163000020032000d00e000efff3c004fcdde0065
:101640008a057800089ebe000a96be00300037006a
:10165000e00f5400e08f5c00e00f5d00e08f5d0064
:1016600004003a005c0890008d0120000000e000ba
:10167000090032006172b900612bb9000800be0098
:101680000a01be00cd0107000fba9700644278003e
:10169000f4ef9f007d0120006172b900612bb90059
:1016a0000800be000a01be00bd0107000d003700a2
:1016b0006172b900612bb9000800be000a01be00ca
:1016c000c20107008d06e90000f2b90004045400cd
:1016d0008fba970065427c0085fd2f008f82420003
:1016e00084f27e00009ebe000296be003c04be0056
:1016f0002c05be00e00f5400e08f5c00e00f5d00a1
:10170000e08f5d00020034000d00e000e8ff3c00c7
:10171000e80f570010003a000c1090000038a300aa
:101720000d003200f78f560006003e0085fd2f00a9
:101730008f824200e5c07e0000c3b30080cf50001e
:10174000050032008d06e90002c3b30081fd2f00c1
:101750008f80400082f07e0078811600120e980083
:101760006c00900083fd2f008f8141008d8041002f
:101770009ffb07001c089000dc089000810f5000c0
:1017800006003d0000805000000e98000c109000f4
:101790000040a100001698000f0037000100e00093
:1017a0000d003d008c109000f4806000f08f500020
:1017b00009003a007c099000fc0090008100510073
:1017c0000c09900082805000008050004240a90027
:1017d00001003400000e98004f0778004f06be004d
:1017e0004f05be004f04be00cf01b100000006004f
:1017f0000400fa00889fbe008a9fbe008c1f7800fc
:101800000004780001067800f80d90007800900040
:1018100080855500080890008085550018089000c4
:101820008085550028089000808555003808900074
:1018300080855500480890008085550000022200f0
:1018400090bf9f0000032300a0bf9f0008109000de
:101850000028a30015003a000b00e000130034003c
:101860000b0578008a047800e20f5500010036006d
:1018700029002000c801900009017800ee8057007f
:101880005800900003000100500498000000e000a0
:101890008c0032006808900009004000600c98003d
:1018a000090555004240a900eeff3c007801900078
:1018b0000200e0000c003400c80190008c007800a9
:1018c0005800900003000100500498008080eb0055
:1018d0000000e0007c003200e808900078009000f2
:1018e00000804000600c9800880c90000900e00027
:1018f0001100340009057800e28f54000100360021
:101900002a002000c80190000a017800ec805700ee
:101910005800900003000100500498000000e0000f
:1019200068003200680890000a004000600c9800cf
:101930008a845400edff3700180990000200e0008f
:101940000c003400c8019000e8009000580090009e
:1019500003000100500498008080eb000000e000cc
:1019600059003200e80890001808900000804000fc
:10197000600c9800a80c90000900e00011003400f1
:1019800009057800e28f5400010036002a0020008b
:10199000c80190000a017800ec80570058009000c0
:1019a00003000100500498000000e00045003200f0
:1019b000680890000a004000600c98008a84540077
:1019c000edff3700380990000200e0000e003400ff
:1019d000e80090001808900080804000c801900046
:1019e0005800900003000100500498008080eb0034
:1019f0000000e00034003200e80890003808900051
:101a000000804000600c9800c80c90000900e000c5
:101a10001100340009057800e28f540001003600ff
:101a20002a002000c80190000a017800ec805700cd
:101a30005800900003000100500498000000e000ee
:101a400020003200680890000a004000600c9800f6
:101a50008a845400edff3700081090008000eb00ee
:101a60000028a300180032000b00e000160034002c
:101a70008b04780009057800e28f540001003600dd
:101a80002a002000c80190000a017800ee8057006b
:101a90005800900003000100500498000000e0008e
:101aa00008003200680890000a004000600c9800ae
:101ab0008a8454004240a900eeff3c008000eb0005
:101ac000010037008080eb00010078004f067800ad
:101ad0004f05be004f04be000080fa000000060063
:101ae0000108780000000600839f68000100e00004
:101af00002003d0060001000e08018000300e000dc
:101b000002003d0060011100e081190089fa070020
:101b10004f00e00002003b0060001000e080180071
:101b200000000600020ab900001bb9000200b8005c
:101b3000810042008100430000000600889fbe0033
:101b40008a9fbe0030044200b0844a0030054b003a
:101b500090854b006000b1000898be000a90be005e
:101b60000440e10005c8e10006d0e10007d8e1002b
:101b700002003100680040001008e8004f05be0078
:101b80004f04be0000000600889fbe008a9fbe0072
:101b90003004be002005be000418540005985c0007
:101ba00006185d0007985d00110020000440e10068
:101bb00005c8e10006d0e10007d8e10001003900c6
:101bc0008000eb00108810004f05be004f04be00df
:101bd000000006001200fa00889fbe008a9fbe0027
:101be0008c9fbe00e0b79f00f1b79f0082bf9f00af
:101bf00093bf9f000605be000404be000000eb007a
:101c0000d0b79f00c0b79f00b0b79f00a0b79f009c
:101c100090b79f000006eb005fb19700cfb0970030
:101c2000820141003fb097000200e00004003d0047
:101c3000370007007e805700c0ff07000300370011
:101c4000330007007e805700cfff0700dfb6970004
:101c50000d00e0000c0035006fb29700ffb2970056
:101c60000fbb97009fbb97001000200001002000d1
:101c70006011b800000272008182720002037300da
:101c8000838373001b0007000c06e800010420009a
:101c9000810f5600e0ff3a000d00e00004003d0017
:101ca0000802be000a03be007e805700a3ff0700a3
:101cb0005fa897000000e00005003a001fb29700ff
:101cc000afb297003fb39700cfb39700090007006a
:101cd0006fb09700ffb097000fb997009fb99700ba
:101ce0004f06be004f05be004f04be000080fa0044
:101cf000000006000100070000000600a4b79f00d6
:101d0000b5b79f00c6b79f00d7b79f000000060079
:101d10004f09de0082817100b3b79f004f01de00e2
:101d20008180400082807000a1b79f008fb0970033
:101d30004f09de00000040000200700090b79f00d5
:101d40007fa897004f01de008180400082807000f4
:101d500081b79f000d0007004f3ade0000004000f1
:101d600004007000f0af9f0008000700040242006a
:101d700085824a0006034b0087834b00dfff070084
:101d80000802be000a03be00000006002fb2970042
:101d9000bfb297004fb39700dfb397000000060073
:101da000881f780018002000881f780089ff07002e
:101db0008f87e9004f04780000000600801feb00c9
:101dc00084ff07008f87e90000000600889fbe009f
:101dd0008a9fbe00e00f5000e08f5800e00f5900ce
:101de000e08f59000c003d006044b8006055b80019
:101df0000000540081805c0002015d0083815d0071
:101e0000180020001500070008003d00180007001a
:101e10000004eb00050037000004eb000f00070092
:101e200002003d001200070018002000dcff070040
:101e30000800e000060032006022b8006033b800fd
:101e40000000520081805a0002015b0083815b0028
:101e50004f05be004f04be0000000600e00f520018
:101e6000e08f5a00e00f5b00e08f5b00000006008f
:101e70006044b8006055b8000402540085825c00dc
:101e800006035d0087835d0000000600889fbe009a
:101e90008a9fbe008c1f7800e00f5000e08f580032
:101ea000e00f5900e08f59000d003d006044b8007c
:101eb0006055b8000000540081805c0002015d00a4
:101ec00083815d001c0020000820e10009a8e100da
:101ed0000ab0e1000bb8e1000d003d00080037003a
:101ee0000006eb00e00f5200e08f5a00e00f5b00ad
:101ef000e08f5b0006003d006044b8006055b8000c
:101f00000402540085825c0006035d0087835d0047
:101f1000aaff07000c00e000060032006022b800b3
:101f20006033b8000000520081805a0002015b005b
:101f300083815b004f0678004f05be004f04be0052
:041f40000000060097
:020000040000fa
:101f4400765400007261000063650000456e000075
:101f5400616200006c6500002854000052430000d8
:101f64005f53000054410000525400005f410000e0
:101f740057410000495400005f4800004f530000df
:101f840054290000206e00006f74000020610000de
:101f94006c6c00006f77000065640000206900002d
:101fa4006e200000536e0000617000007368000032
:101fb4006f740000206d00006f6400006500000075
:101fc400556e0000657800007065000063740000c1
:101fd400656400002061000072670000756d0000f8
:101fe400656e000074200000746f0000207600000d
:101ff4005472000061630000654500006e610000da
:10200400626c000065200000287300006e6100000f
:1020140070730000686f0000742000006d6f000092
:10202400646500002900000052650000636f000031
:102034007264000065720000446100007461000075
:10204400507400007220000069730000204e0000ec
:10205400554c00004c2e000020430000616c000031
:102064006c2000007654000072610000636500007b
:10207400496e00006974000054720000616300003e
:1020840065440000617400006128000029200000fc
:1020940062650000666f0000726500002073000036
:1020a4007461000072740000696e00006720000013
:1020b4007472000061630000652e000000280000b7
:1020c40073740000617200007475000070290000d0
:1020d4000054000052410000434500005f410000ed
:1020e4005353000045520000543a00002078000089
:1020f40054720000616300006553000065740000c1
:102104004953000052500000726f000070650000d7
:102114007274000069650000733a000020490000f1
:102124006e760000616c0000696400002076000097
:10213400616c000075650000206600006f7200008d
:1021440020680000616e0000646c000065000000ff
:102154005452000041430000455f00004153000019
:1021640053450000525400003a2000007854000007
:10217400726100006365000053650000744900004b
:1021840053520000507200006f700000657200002e
:1021940074690000657300003a2000006e6100005d
:1021a4006d650000203d00003d2000004e550000fc
:1021b4004c4c000000760000547200006163000083
:1021c40065530000746f00007265000049530000fd
:1021d4005242000065670000696e0000202d000077
:1021e40020720000656300006f72000064650000e7
:1021f4007220000062750000737900002120000045
:102204005365000065200000636f000064650000f2
:10221400206300006f6d00006d6500006e740000a7
:102224002e0000005452000041430000455f0000ae
:102234004153000053450000525400003a2000006e
:10224400765400007261000063650000537400005e
:102254006f7200006549000053520000426500009f
:10226400676900006e3a0000204900006e760000a5
:10227400616c0000696400002049000053520000b2
:1022840020680000616e0000646c0000652000009e
:10229400284e0000554c00004c290000005400005a
:1022a40052410000434500005f41000053530000c9
:1022b40045520000543a0000207600005472000099
:1022c4006163000065530000746f000072650000d4
:1022d400495300005242000065670000696e000027
:1022e4003a200000496e0000766100006c6900002d
:1022f400642000004953000052200000686100007f
:102304006e6400006c650000202800003e20000080
:102314004e4900005352000029000000546f000091
:102324006f2000006d6100006e790000206e0000d7
:10233400657300007465000064200000696e00008d
:102344007465000072720000757000007473000000
:1023540021000000765400007261000063650000f3
:10236400537400006f72000065490000535200006e
:10237400456e0000642000002d20000072650000fe
:10238400636f000072640000657200002062000048
:10239400757300007921000020530000656500007a
:1023a400206300006f64000065200000636f00007c
:1023b4006d6d0000656e0000742e00000055000075
:1023c4006e6d0000617400006368000065640000c5
:1023d40020630000616c00006c200000746f00003a
:1023e4002076000054720000616300006553000011
:1023f400746f0000726500004953000052450000ec
:102404006e640000202800006e4900005352000052
:10241400616300007469000076650000203d0000df
:102424003d200000302c0000206500007870000082
:102434006563000074650000642000003e20000015
:1024440030290000005400005241000043450000c0
:102454005f4100005353000045520000543a00000d
:10246400207700007269000074650000496e000066
:10247400743800003a2000006275000066660000af
:1024840065720000203d00003d2000004e55000014
:102494004c4c000000540000524100004345000031
:1024a4005f4100005353000045520000543a0000bd
:1024b400207700007269000074650000496e000016
:1024c40074310000363a0000206200007566000096
:1024d40066650000722000003d3d0000204e0000b3
:1024e400554c00004c0000005452000041430000d1
:1024f400455f000041530000534500005254000062
:102504003a200000777200006974000065490000f9
:102514006e740000333200003a200000627500003f
:102524006666000065720000203d00003d2000004a
:102534004e5500004c4c0000007600005472000020
:102544006163000065500000726900006e74000051
:10255400462000002d200000546f00006f20000072
:102564006d6100006e790000206100007267000058
:10257400756d0000656e0000747300002c2000006f
:102584006d610000782000003135000020610000fa
:102594006c6c00006f77000065640000210000008f
:1025a4007654000072610000636500005072000000
:1025b400696e000074460000202d000020540000c5
:1025c4006f6f0000206c00006172000067650000fe
:1025d4002061000072670000756d0000656e0000e8
:1025e400747300002c2000006d610000782000004e
:1025f400333200002062000079740000652000007e
:10260400616c00006c6f00007765000064210000bd
:102614000054000052410000434500005f410000a7
:102624005353000045520000543a00002076000045
:10263400547200006163000065500000726900007c
:102644006e740000465f0000486500006c70000076
:10265400657200003a200000666f0000726d000091
:102664006174000053740000722000003d3d0000be
:10267400204e0000554c00004c0000005452000055
:1026840041430000455f00004153000053450000f2
:10269400525400003a200000785400007261000097
:1026a40063650000526500006769000073740000f0
:1026b4006572000053740000726900006e670000c8
:1026c4003a2000006c610000626500006c2000008c
:1026d4003d3d0000204e0000554c00004c00000021
:1026e4005452000041430000455f00004153000084
:1026f40053450000525400003a200000707200005c
:102704007654000072610000636500005374000099
:102714006f72000065540000617300006b5200008a
:1027240065610000647900003a200000496e0000f1
:10273400766100006c69000064200000766100008e
:102744006c75000065200000666f000072200000b8
:10275400686100006e6400006c65000000520000b7
:10276400656300006f720000646500007220000061
:102774006275000073790000202d000020680000bd
:10278400696700006820000070720000696f000033
:10279400726900007479000020490000535200005f
:1027a40020750000736900006e670000207300004c
:1027b40079730000636100006c6c00003f2000002e
:1027c4002831000029000000545200004143000059
:1027d400455f00004153000053450000525400007f
:1027e4003a2000007072000076540000726100000c
:1027f40063650000537400006f720000654c0000b4
:102804006f770000506f000077650000723a000097
:10281400204900006e760000616c000069640000cd
:10282400206600006c6100006720000076610000f3
:102834006c75000065000000545200004143000024
:10284400455f00004153000053450000525400000e
:102854003a2000007072000076540000726100009b
:1028640063650000537400006f720000654b000044
:10287400657200006e6500006c430000616c00002e
:102884006c3a000020650000636f0000646500007e
:10289400203e00003d200000307800004646000045
:1028a4000054000052410000434500005f41000015
:1028b4005353000045520000543a000020700000b9
:1028c40072760000547200006163000065530000da
:1028d400746f0000726500004b650000726e0000aa
:1028e400656c0000436100006c6c00003a2000003d
:1028f4006f6200006a65000063740000436c0000ae
:1029040061730000732000003e3d0000205400006d
:1029140052410000434500005f4e0000434c00005c
:10292400415300005345000053000000545200007e
:1029340041430000455f000041530000534500003f
:10294400525400003a2000007072000076540000d7
:102954007261000063650000537400006f72000030
:10296400654b0000657200006e6500006c4300005a
:10297400616c00006c3a0000204900006e76000093
:10298400616c00006964000020760000616c000046
:1029940075650000206600006f720000206f000063
:1029a400626a000065630000744e0000756d0000eb
:1029b400626500007200000052650000636f000051
:1029c40072640000657200002062000075730000ec
:1029d400792000002d20000068690000676800006d
:1029e40020700000726900006f72000069740000ba
:1029f4007920000049530000522000007573000044
:102a0400696e0000672000007379000073630000a2
:102a1400616c00006c3f0000202800003229000097
:102a24000054000052410000434500005f41000093
:102a34005353000045520000543a00002070000037
:102a44007276000054720000616300006553000058
:102a5400746f0000726500004b650000726e000028
:102a6400656c0000436100006c6c00005769000055
:102a74007468000050610000726100006d3a00004b
:102a84002065000076740000636f00006465000038
:102a9400203e00003d200000307800004646000043
:102aa4000054000052410000434500005f41000013
:102ab4005353000045520000543a000020700000b7
:102ac40072760000547200006163000065530000d8
:102ad400746f0000726500004b650000726e0000a8
:102ae400656c0000436100006c6c000057690000d5
:102af4007468000050610000726100006d3a0000cb
:102b0400206f0000626a00006563000074430000e7
:102b14006c61000073730000203e00003d20000043
:102b24005452000041430000455f00004e43000042
:102b34004c41000053530000455300000054000072
:102b440052410000434500005f4100005353000020
:102b540045520000543a00002070000072760000d4
:102b6400547200006163000065530000746f00003c
:102b7400726500004b650000726e0000656c000019
:102b8400436100006c6c0000576900007468000029
:102b940050610000726100006d3a0000204900009d
:102ba4006e760000616c000069640000207600000d
:102bb400616c000075650000206600006f72000003
:102bc400206f0000626a000065630000744e00001c
:102bd400756d00006265000072000000526500001f
:102be400636f0000726400006572000020620000e0
:102bf40075730000792000002d2000006869000032
:102c04006768000020700000726900006f720000a5
:102c1400697400007920000049530000522000002c
:102c240075730000696e000067200000737900006e
:102c340073630000616c00006c3f000020280000fa
:102c440033290000005400005241000043450000b5
:102c54005f4100005353000045520000543a000005
:102c6400207000007276000054720000616300005e
:102c74006547000065740000506100007261000047
:102c84006d3a0000204900006e760000616c00007f
:102c94006964000020760000616c00007565000026
:102ca400206600006f720000207000006172000056
:102cb400616d00005f6d0000617800000054000049
:102cc40052410000434500005f410000535300009f
:102cd40045520000543a0000207000007276000053
:102ce400547200006163000065530000746f0000bb
:102cf400726500004b650000726e0000656c000098
:102d0400436100006c6c00005769000074680000a7
:102d14004e7500006d65000072690000635000008c
:102d240061720000616d00004f6e00006c7900005c
:102d34003a200000496e0000766100006c690000d2
:102d440064200000766100006c75000065200000be
:102d5400666f000072200000657600007463000056
:102d64006f6400006500000052650000636f00009e
:102d74007264000065720000206200007573000038
:102d8400792000002d2000006869000067680000b9
:102d940020700000726900006f7200006974000006
:102da4007920000049530000522000007573000090
:102db400696e0000672000007379000073630000ef
:102dc400616c00006c3f00002028000034290000e2
:102dd4000054000052410000434500005f410000e0
:102de4005353000045520000543a00002070000084
:102df40072760000547200006163000065530000a5
:102e0400746f00007265000054610000736b000071
:102e14007377000069740000636800003a200000c2
:102e2400496e0000766100006c69000064200000b7
:102e3400766100006c75000065200000666f00007c
:102e44007220000074610000736b00005f68000072
:102e5400616e0000646c00006500000054520000c4
:102e640041430000455f000041530000534500000a
:102e7400525400003a2000007072000076540000a2
:102e84007261000063650000537400006f720000fb
:102e9400654f0000626a000065630000744e000024
:102ea400616d0000654f00006e4300006c6f000010
:102eb4007365000045760000656e0000743a0000fa
:102ec400206f0000626a0000656300007463000004
:102ed4006c61000073730000203e00003d20000080
:102ee4005452000041430000455f00004e4300007f
:102ef4004c410000535300004553000000540000af
:102f040052410000434500005f410000535300005c
:102f140045520000543a0000207000007276000010
:102f2400547200006163000065530000746f000078
:102f3400726500004f6200006a650000637400005f
:102f44004e6100006d6500004f6e0000436c000090
:102f54006f73000065450000766500006e74000024
:102f64003a200000496e0000766100006c690000a0
:102f740064200000766100006c750000652000008c
:102f8400666f000072200000686100006e6400003b
:102f94006c650000005400005241000043450000ed
:102fa4005f4100005353000045520000543a0000b2
:102fb400207000007276000054720000616300000b
:102fc40065530000746f0000726500004f620000da
:102fd4006a65000063740000507200006f700000a6
:102fe4006572000074690000657300004f6e000094
:102ff400436c00006f7300006545000076650000b7
:103004006e7400003a2000006f6200006a650000e0
:1030140063740000636c000061730000732000009f
:103024003e3d000020540000524100004345000092
:103034005f4e0000434c0000415300005345000024
:10304400530000005452000041430000455f00005b
:103054004153000053450000525400003a20000040
:103064007072000076540000726100006365000015
:10307400537400006f720000654f0000626a000024
:103084006563000074500000726f000070650000fa
:103094007274000069650000734f00006e43000005
:1030a4006c6f00007365000045760000656e0000db
:1030b400743a0000204900006e760000616c000044
:1030c4006964000020760000616c000075650000f2
:1030d400206600006f72000020680000616e00002e
:1030e400646c00006500000054520000414300007d
:1030f400455f000041530000534500005254000056
:103104003a200000707200007654000072610000e2
:10311400636500005365000074500000726900008c
:103124006f7200006974000079500000726f000033
:103134007065000072740000793a0000206f00008e
:10314400626a000065630000746300006c61000043
:1031540073730000203e00003d2000005452000024
:1031640041430000455f00004e4300004c41000015
:103174005353000045530000005400005241000026
:10318400434500005f4100005353000045520000d6
:10319400543a00002070000072760000547200005f
:1031a4006163000065530000657400005072000004
:1031b400696f0000726900007479000050720000a9
:1031c4006f70000065720000747900003a200000fe
:1031d400496e0000766100006c6900006420000004
:1031e400766100006c75000065200000666f0000c9
:1031f4007220000069640000005400005241000085
:10320400434500005f410000535300004552000055
:10321400543a0000207000007276000054720000de
:10322400616300006547000065740000507200008f
:10323400696f000072690000747900005072000028
:103244006f70000065720000747900003a2000007d
:103254006f6200006a65000063740000636c000024
:1032640061730000732000003e3d00002054000004
:1032740052410000434500005f4e0000434c0000f3
:103284004153000053450000530000005452000015
:1032940041430000455f00004153000053450000d6
:1032a400525400003a20000070720000765400006e
:1032b40072610000636500004765000074500000ff
:1032c400726900006f720000697400007950000098
:1032d400726f00007065000072740000793a00009b
:1032e400204900006e760000616c000069640000f3
:1032f40020760000616c0000756500002066000007
:103304006f72000020690000640000005452000045
:1033140041430000455f0000415300005345000055
:10332400525400003a2000007072000076540000ed
:10333400726100006365000053650000744f000073
:10334400626a000065630000745300007461000049
:10335400746500003a2000006f6200006a65000096
:1033640063740000636c000061730000732000004c
:103374003e3d00002054000052410000434500003f
:103384005f4e0000434c00004153000053450000d1
:10339400530000005452000041430000455f000008
:1033a4004153000053450000525400003a200000ed
:1033b40070720000765400007261000063650000c2
:1033c40053650000744f0000626a000065630000ea
:1033d4007453000074610000746500003a2000001a
:1033e400496e0000766100006c69000064200000f2
:1033f400766100006c75000065200000666f0000b7
:103404007220000069640000005400005241000072
:10341400434500005f410000535300004552000043
:10342400543a0000207000007276000054720000cc
:103434006163000065470000657400004f6200008e
:103444006a65000063740000537400006174000036
:10345400653a0000206f0000626a000065630000a6
:10346400746300006c61000073730000203e000070
:103474003d2000005452000041430000455f00001d
:103484004e4300004c4100005353000045530000dc
:103494000054000052410000434500005f41000019
:1034a4005353000045520000543a000020700000bd
:1034b40072760000547200006163000065470000ea
:1034c400657400004f6200006a65000063740000c8
:1034d4005374000061740000653a00002049000044
:1034e4006e760000616c00006964000020760000c4
:1034f400616c000075650000206600006f720000ba
:1035040020690000640000005452000041430000a0
:10351400455f000041530000534500005254000031
:103524003a200000707200007654000072610000be
:10353400636500005365000074540000617300006b
:103544006b4900006e730000746100006e6300003c
:1035540065460000696e000069730000686500003c
:10356400643a0000204900006e760000616c00009f
:103574006964000020760000616c0000756500003d
:10358400206600006f72000020680000616e000079
:10359400646c000065000000547200006163000068
:1035a4006520000052650000636f00007264000033
:1035b4006572000020440000656d00006f0000008b
:1035c40041740000746500006d70000074200000f8
:1035d400746f0000206900006e64000065780000cc
:1035e400206f0000757400007369000064650000ba
:1035f40020650000766500006e7400002062000003
:103604007566000066650000722100000054000029
:1036140052410000434500005f4100005353000045
:1036240045520000543a000020750000694900002a
:103634006e640000657800004f6600004f62000071
:103644006a650000637400003a200000496e0000bf
:10365400766100006c69000064200000766100005f
:103664006c75000065200000666f00007220000089
:103674006f6200006a65000063740000636c000000
:1036840061730000730000005452000041430000c5
:10369400455f0000415300005345000052540000b0
:1036a4003a20000075690000496e0000646500005e
:1036b400784f0000664f0000626a000065630000f6
:1036c400743a0000204900006e760000616c00002e
:1036d4006964000020760000616c000075650000dc
:1036e400206600006f720000206f0000626a000014
:1036f4006563000074680000616e0000646c000083
:10370400650000004f6200006a65000063740000f9
:1037140020740000616200006c650000206c0000f1
:103724006f6f00006b750000702000007769000067
:1037340074680000206900006e760000616c00006f
:1037440069640000206f0000626a00006563000085
:1037540074200000686100006e6400006c65000065
:10376400206f0000722000006f6200006a65000094
:1037740063740000206300006c6100007373000038
:10378400210000005452000041430000455f000046
:103794004153000053450000525400003a200000f9
:1037a40070720000765400007261000063650000ce
:1037b40047650000744f0000626a00006563000002
:1037c40074480000616e0000646c0000653a0000fb
:1037d400204900006e760000616c000069640000fe
:1037e40020760000616c0000756500002066000012
:1037f4006f720000206f0000626a000065630000c1
:10380400746300006c6100007373000000540000d6
:1038140052410000434500005f4100005353000043
:1038240045520000543a00002070000072760000f7
:103834005472000061630000654600007265000078
:10384400654f0000626a0000656300007448000070
:10385400616e0000646c0000653a000020490000bd
:103864006e760000616c0000696400002076000040
:10387400616c000075650000206600006f72000036
:10388400206f0000626a000065630000746300003a
:103894006c6100007373000000540000524100008a
:1038a400434500005f4100005353000045520000af
:1038b400543a000020700000727600005472000038
:1038c400616300006546000072650000654f0000fa
:1038d400626a00006563000074480000616e0000c5
:1038e400646c0000653a0000204900006e76000018
:1038f400616c00006964000020760000616c0000c7
:1039040075650000206600006f72000020680000ea
:10391400616e0000646c00006500000041740000ea
:10392400746500006d70000074200000746f000066
:103934002066000072650000652000006d6f0000c5
:103944007265000020680000616e0000646c000075
:103954006573000020740000686100006e200000a0
:10396400616c00006c6f000063610000746500000e
:10397400642100000054000052410000434500004f
:103984005f4100005353000045520000543a0000c8
:103994002070000072760000547200006163000021
:1039a40065530000657400004f6200006a65000002
:1039b400637400004e6100006d6500003a20000051
:1039c4006e6100006d650000203d00003d20000098
:1039d4004e5500004c4c0000004900006c6c000087
:1039e40065670000616c0000206f0000626a0000df
:1039f4006563000074200000636c000061730000c4
:103a040073200000696e00002070000072760000d0
:103a14005472000061630000655300006574000087
:103a24004f6200006a650000637400004e6100008c
:103a34006d650000004900006c6c000065670000c3
:103a4400616c000020680000616e0000646c00007e
:103a5400652000002830000029200000696e000065
:103a64002070000072760000547200006163000050
:103a740065530000657400004f6200006a65000031
:103a8400637400004e6100006d6500002e000000ac
:103a94005452000041430000455f000041530000c0
:103aa40053450000525400003a2000007072000098
:103ab4007654000072610000636500004f700000de
:103ac400656e0000537900006d6200006f6c0000a9
:103ad4003a2000006e6100006d650000203d00008a
:103ae4003d2000004e5500004c4c000000540000e6
:103af40052410000434500005f4100005353000061
:103b040045520000543a0000207000007276000014
:103b140043680000656300006b44000061740000aa
:103b2400615400006f420000654f0000766500009c
:103b3400727700007269000074740000656e000002
:103b4400466f0000724d0000756c0000746900003f
:103b5400456e00007472000079450000766500002f
:103b64006e740000733a0000206e00006f6600005f
:103b7400456e000074720000696500007354000013
:103b84006f43000068650000636b0000203d000087
:103b94003d2000003000000054520000414300006a
:103ba400455f00004153000053450000525400009b
:103bb4003a20000070720000765400007261000028
:103bc400636500004765000074440000545300001e
:103bd4003a200000496e0000766100006c69000024
:103be40064200000766100006c7500006520000010
:103bf400666f0000722000007061000072610000b6
:103c04006d5f00006d6100007844000054530000b3
:103c14000042000061640000207000006172000036
:103c2400616d00005f6d0000617800004454000085
:103c340053200000696e00002070000072760000be
:103c44005472000061630000654700006574000061
:103c5400445400005300000054520000414300004b
:103c6400455f0000415300005345000052540000da
:103c74003a20000070720000765400007261000067
:103c8400636500004c6f00006f6b000075700000ee
:103c9400537900006d6200006f6c000054610000f5
:103ca400626c0000654500006e74000072790000cb
:103cb4003a2000006e6100006d650000203d0000a8
:103cc4003d2000004e5500004c4c00000054000004
:103cd40052410000434500005f410000535300007f
:103ce40045520000543a0000207000007276000033
:103cf4005472000061630000654c00006f6f0000a7
:103d04006b75000070530000796d0000626f000055
:103d14006c540000616200006c650000456e000098
:103d240074720000793a0000206c0000656e000097
:103d3400203d00003d2000003000000054520000ef
:103d440041430000455f000041530000534500001b
:103d5400525400003a2000007072000076540000b3
:103d64007261000063650000437200006561000039
:103d740074650000537900006d6200006f6c0000f0
:103d840054610000626c0000654500006e74000020
:103d9400727900003a2000006e6100006d65000039
:103da400203d00003d2000004e5500004c4c00001a
:103db4000054000052410000434500005f410000f0
:103dc4005353000045520000543a00002070000094
:103dd40072760000547200006163000065430000c5
:103de400726500006174000065530000796d000085
:103df400626f00006c540000616200006c6500009a
:103e0400456e000074720000793a0000206c0000d6
:103e1400656e0000203d00003d20000030000000e1
:103e2400537900006d6200006f6c00002074000084
:103e3400616200006c65000020660000756c000083
:103e44006c2e0000204900006e63000072650000c3
:103e5400617300006520000054520000435f0000bd
:103e640043460000475f0000535900004d420000e4
:103e74004f4c00005f540000414200004c450000dc
:103e84005f530000495a000045200000696e00009d
:103e94002074000072630000436f00006e6600002f
:103ea400696700002e6800000054000052410000c1
:103eb400434500005f410000535300004552000099
:103ec400543a000020700000727600005472000022
:103ed40061630000654700006574000043680000ea
:103ee400656300006b730000756d00003a200000ec
:103ef400706e0000616d0000652000003d3d000013
:103f0400204e0000554c00004c00000054520000ac
:103f140041430000455f0000415300005345000049
:103f2400525400003a2000007072000076540000e1
:103f3400726100006365000047650000744300007f
:103f440068650000636b0000737500006d3a000043
:103f54002070000063720000632000003d3d0000fb
:103f6400204e0000554c00004c000000545200004c
:103f740041430000455f00004153000053450000e9
:103f8400525400003a200000707200007654000081
:103f9400726100006365000047650000744300001f
:103fa40068650000636b0000737500006d3a0000e3
:103fb400207000006c6500006e67000074680000eb
:103fc400203d00003d2000004e5500004c4c0000f8
:103fd400000000004e6f000074200000656e0000b9
:103fe4006f75000067680000205400004153000012
:103ff4004b200000686100006e6400006c650000e6
:10400400732000002d200000696e00006372000020
:1040140065610000736500002054000052430000f5
:104024005f430000464700005f4e0000544100001b
:10403400534b0000206900006e20000074720000e1
:10404400635300006e61000070730000686f00002d
:10405400744300006f6e000066690000672e000064
:10406400680000004e6f000074200000656e0000c0
:104074006f7500006768000020490000535200007b
:1040840020680000616e0000646c0000657300002d
:10409400202d0000206900006e630000726500009e
:1040a400617300006520000054520000435f00006b
:1040b40043460000475f00004e4900005352000091
:1040c400206900006e200000747200006353000039
:1040d4006e61000070730000686f0000744300009c
:1040e4006f6e000066690000672e00006800000023
:1040f4004e6f000074200000656e00006f750000b4
:104104006768000020530000454d00004150000046
:10411400484f00005245000020680000616e000016
:10412400646c000065730000202d0000206900000d
:104134006e6300007265000061730000652000007a
:1041440054520000435f000043460000475f0000f4
:104154004e530000454d000041500000484f000000
:1041640052450000206900006e20000074720000b7
:10417400635300006e61000070730000686f0000fc
:10418400744300006f6e000066690000672e000033
:10419400680000004e6f000074200000656e00008f
:1041a4006f75000067680000204d00005554000042
:1041b4004558000020680000616e0000646c000037
:1041c40065730000202d0000206900006e6300006c
:1041d4007265000061730000652000005452000005
:1041e400435f000043460000475f00004e4d00005f
:1041f4005554000045580000206900006e2000005e
:1042040074720000635300006e610000707300005c
:10421400686f0000744300006f6e00006669000060
:10422400672e0000680000004e6f0000742000003c
:10423400656e00006f750000676800002051000083
:10424400554500005545000020680000616e0000df
:10425400646c000065730000202d000020690000dc
:104264006e63000072650000617300006520000049
:1042740054520000435f000043460000475f0000c3
:104284004e510000554500005545000020690000ce
:104294006e20000074720000635300006e61000021
:1042a40070730000686f0000744300006f6e0000bc
:1042b40066690000672e0000680000004e6f000071
:1042c40074200000656e00006f75000067680000d0
:1042d40020540000494d00004552000020680000b1
:1042e400616e0000646c000065730000202d000006
:1042f400206900006e6300007265000061730000b5
:104304006520000054520000435f00004346000053
:10431400475f00004e540000494d00004552000024
:10432400206900006e2000007472000063530000d6
:104334006e61000070730000686f00007443000039
:104344006f6e000066690000672e000068000000c0
:104354004e6f000074200000656e00006f75000051
:104364006768000020450000564500004e540000d8
:10437400475200004f5500005020000068610000c3
:104384006e6400006c650000732000002d200000a6
:10439400696e0000637200006561000073650000cf
:1043a40020540000524300005f43000046470000d1
:1043b4005f4e000045560000454e00005447000083
:1043c400524f000055500000206900006e2000008c
:1043d40074720000635300006e610000707300008b
:1043e400686f0000744300006f6e0000666900008f
:1043f400672e0000680000004e6f0000742000006b
:10440400656e00006f7500006768000020530000af
:1044140054520000454100004d4200005546000042
:104424004645000052200000686100006e640000f0
:104434006c650000732000002d200000696e0000f0
:104444006372000065610000736500002054000081
:10445400524300005f430000464700005f4e0000e7
:104464005354000052450000414d000042550000e5
:104474004646000045520000206900006e200000fe
:1044840074720000635300006e61000070730000da
:10449400686f0000744300006f6e000066690000de
:1044a400672e0000680000004e6f000074200000ba
:1044b400656e00006f75000067680000204d000005
:1044c4004553000053410000474500004255000099
:1044d400464600004552000020680000616e00005e
:1044e400646c000065730000202d0000206900004a
:1044f4006e630000726500006173000065200000b7
:1045040054520000435f000043460000475f000030
:104514004e4d000045530000534100004745000044
:104524004255000046460000455200002069000044
:104534006e20000074720000635300006e6100007e
:1045440070730000686f0000744300006f6e000019
:1045540066690000672e00006800000070730000a8
:104564007a54000072610000636500004765000032
:1045740074450000727200006f7200004861000010
:104584006e6400006c650000733a0000204900006e
:104594006e760000616c000069640000206f00000a
:1045a400626a000065630000746300006c610000cf
:1045b40073730000210000002d2d00000000000096
:1045c4000000000000000000000000002d2d00008d
:1045d4006d6f0000646500006c00000000000000c6
:1045e4002d2d00007665000072730000696f0000d5
:1045f4006e0000002d2d000074790000706500002d
:1046040000000000000000002d2d00007365000074
:1046140072690000616c0000000000002d2d000094
:10462400646e000073000000000000000000000041
:104634002d2d0000706f0000727400000000000057
:10464400000000002d2d00007072000073000000b7
:1046540000000000000000002d2d00007077000015
:104664007300000000000000000000002d2d000079
:1046740070740000730000000000000000000000df
:104684002d2d00006461000074650000000000002e
:10469400000000002d2d0000617000006e0000007d
:1046a40000000000000000002d2d000076700000c6
:1046b4006e00000000000000000000002d2d00002e
:1046c400736500006e73000000000000000000002d
:1046d4002d2d0000746500006d70000000000000c6
:1046e400000000002d2d0000687500006d00000022
:1046f40000000000000000002d2d0000707200007a
:104704006573000073000000000000002d2d000000
:1047140077640000697200000000000000000000df
:104724002d2d00007773000070640000000000006d
:10473400000000002d2d0000777300006d61000063
:1047440078000000000000002d2d000077730000a9
:104754006d6900006e000000000000002d2d0000b7
:1047640072610000696e000000000000000000009b
:104774002d2d000073720000616400000000000031
:10478400000000002d2d0000747300006f6900000c
:104794006c000000000000002d2d0000626100008c
:1047a4007474000000000000000000002d2d0000c3
:1047b4006e690000766500006c00000000000000d7
:1047c4002d2d0000697000000000000000000000b2
:1047d400000000002d2d000066770000000000009e
:1047e40000000000000000002d2d0000696d000095
:1047f4006569000000000000000000002d2d00008d
:10480400696d0000736900000000000000000000f2
:104814002d2d0000736700006e6c00000000000086
:10482400000000002d2d00006d6e00006f000000e0
:1048340000000000000000002d2d00007361000046
:104844006d70000000000000000000002d2d00002d
:10485400776900007065000000000000000000009f
:104864002d2d0000726500007365000074000000c7
:10487400000000002d2d0000686500006c70000031
:1048840000000000000000002d2d0000736d0000ea
:10489400736700000000000000000000000000003a
:1048a4000000000000000000000000000000000004
:1048b400257300003a250000730a0000004c000034
:1048c400612000006163000063690000f36e000072
:1048d4002027000025730000272000006e6f0000d1
:1048e400206500007320000076e100006c69000080
:1048f400646100002e0a0000004300006f6d000098
:10490400616e0000646f0000206500006e630000ab
:104914006f6e000074720000616400006f3a000062
:1049240020250000732e0000204e00004f200000c0
:10493400494d0000504c0000454d0000454e00001c
:1049440054410000444f00000a0000002573000099
:104954003a250000750000000a0000002d2d00001b
:10496400686500006c7000003a0000002c20000014
:10497400004300006d640000202500007320000047
:104984004e4f0000204900004d5000004c450000ef
:104994004d4500004e540000414400004f0000000b
:1049a400436f00006d6100006e6400006f20000022
:1049b4004e4f0000206500006e6300006f6e000023
:1049c40074720000616400006f3a0000202500004a
:1049d400732e0000204f000062740000656e00001a
:1049e40067610000206100007975000064610000c7
:1049f400206300006f6e0000202d00002d68000071
:104a0400656c0000702e00000a0000004f4d00008d
:104a1400582d000053000000322e000030300000fa
:104a2400005000006f740000007600005461000024
:104a3400736b0000536100006d7000006c65000032
:104a440000530000686500006c6c000000700000fa
:104a54006173000069760000655000006572000013
:104a6400696f000064000000616300007469000065
:104a74007665000050650000726900006f640000f4
:104a84000064000061740000615000006572000061
:104a9400696f000064000000111100002222000070
:104aa400333300004444000055550000666600009e
:104ab400777700008888000099990000aaaa00006e
:104ac400bbbb0000cccc0000dddd0000eeee00003e
:104ad400cecd0000acab0000494400004c450000c2
:104ae40000a50000a5a50000a5a50000a5a500003f
:104af400a5a50000a5a50000a5a50000a5a500008a
:104b0400a5a50000a5a50000a5000000a0a1000027
:104b1400a2a30000a4a50000a6a70000a8a9000065
:104b2400aaab0000acad0000aeaf00004c430000e7
:104b3400440000004f4d0000495800004f4d000054
:104b440000000000546d0000722000005376000045
:044b540063000000fa
:020000040000fa
:104b58000200fa00000f7800380807001e007800ed
:104b6800e10f500002003a00820007000b003700f6
:104b78001e007800e20f500003003a0020fa2800d7
:104b8800aa0a0700050037001e0078000000e000b0
:104b98000200320020fe2800a40a07000080fa0064
:104ba800000006000200fa00000f78009e0078005e
:104bb800d14088000080fa00000006000200fa00d8
:104bc8000000eb00000f7800804080000000e80043
:104bd80080408800224180006000b8006011980081
:104be80071119800224180006000b80040119800bf
:104bf80051119800224180006000b80060099800b7
:104c080071099800224180006000b80020099800ce
:104c180031099800224180006000b8000011980016
:104c2800111198001628ef0021418000c090200043
:104c3800008140006000b8000089be00204180006b
:104c4800d00890004008900000007800c200dd0005
:104c58002241800080962000000041000101780078
:104c68008000eb0067ee07001968ef0080408000c5
:104c78000000e900804088000080fa00000006007b
:104c88000400fa000040eb00004f7800204180004b
:104c98000000e00004003a0060012900630a0700f0
:104ca8006000b800310037002041800000199000f2
:104cb800901990001000200001002000800f510082
:104cc800818f590003003a001000200001002000e5
:104cd80026003700b04080000000e00020003a00c5
:104ce8000000eb0010079800804080000000e800fa
:104cf8008040880022418000100020000100200030
:104d08000019980011199800843207001a32070018
:104d1800004f78001e4078000004e0000b003a00c5
:104d280030c0b300df080700004f780012062900e2
:104d38009e40780030c0b300ca0907000041eb006c
:104d48009e40780030c0b3000e0707001e40780070
:104d580042060700804080000000e900804088008b
:104d68002041800090189000001890000080fa0000
:104d7800000006000000fa00c1ff07000080fa00ea
:104d8800000006000000fa00204180000000e0005a
:104d980004003200224180006000b8000019980029
:104da80011199800d04080000000e0000200320095
:104db800d0408000000001000080fa0000000600da
:104dc8000000fa00204180000000e00005003200e9
:104dd8002041800090189000001890000000780092
:104de800010037000000eb000080fa000000060018
:104df8000000fa00b04080000080fa0000000600c1
:104e08000000fa001628ef00204180000000e000b2
:104e18000500320021418000c09020000081400040
:104e28006000b8000089be000080fa00000006009b
:104e38000000fa00204180000080fa00000006000f
:104e48000000fa0080912100010020000080fa0093
:104e5800000006000800fa00604798000000eb0018
:104e6800000f7800804080000000e8008040880043
:104e7800204180009018900000189000e00f50002a
:104e8800e08f58001900320019c8bf000004e00084
:104e980016003200f00f2000b40a070020479800df
:104ea80024080700200798002e0090000000e0006a
:104eb8000e0032006e4090000004e00004003a004a
:104ec8002e00900001cdb3000148780003003700a0
:104ed8002e00900011cdb300014878002e009000fc
:104ee800ae40900031409800740a0700804080006e
:104ef8000000e900804088000080fa0000000600f9
:104f08000000fa000040eb00d2ff07000080fa0022
:104f1800000006000000fa0010c0b300cdff070033
:104f28000080fa00000006000400fa00000f780074
:104f38002147980036c8bf000040e80036e8b700af
:104f48002041800080e8900036c8bf0080cf500024
:104f580004003100b0062900b40907000040eb0046
:104f6800120037001e0078000000e00004003a003c
:104f7800a00a2900ad0907000040eb000b0037002c
:104f880036c8bf001e0178008040780040c0b300da
:104f98003409070036c8bf002e41900080407800d1
:104fa80040c0b3007706070036c8bf000080fa008b
:104fb800000006000a00fa00004f980080408000b8
:104fc8000000e00003003200d00d29009709070017
:104fd800470037000000eb00000f78008040800099
:104fe8000000e80080408800204180009018900070
:104ff80000189000e00f5000e08f58003900320090
:1050080019c8bf000004e000360032000e489000c6
:105018000004e00003003a0040112900830907005a
:10502800330037002041800080e890000e4890004f
:1050380080cf500003003100101529007b090700bc
:105048002b0037000080eb00480a07001007980083
:10505800204180009018900000189000e00f500048
:10506800e08f58001f00320018c8bf00e74f5000fb
:105078001a003c008e4890004147980018c8bf00ad
:105088000000fb00210c23000e499000827078007c
:1050980018c8bf000040e80018e8b700a5070700d7
:1050a800300798003e0090000000e0000d0032003c
:1050b8003e00900041c0b300014878003e009000d7
:1050c8009e009000110098003e0090004e41900014
:1050d80012409800f909070002003700001929005a
:1050e80052090700804080000000e90080408800e5
:1050f8000080fa00000006000a00fa004007980045
:105108000040eb00004f78000040eb00104798008b
:10511800204180009018900000189000e00f500087
:10512800e08f58005000320019c8bf000004e000aa
:105138004f003200804080000000e0000300320091
:10514800c01a2900390907004a00370018c8bf00eb
:105158000004e00003003a00101e2900330907008c
:10516800440037000000eb001007980080408000e2
:105178000000e800804088004e0090006101b900fe
:1051880000408000114080000000710081807100a3
:10519800004088001140880018c8bf000040e9009e
:1051a80018e8b70018c8bf000004e0000800340081
:1051b80050c0b3001047980018c8bf000000fb009b
:1051c8000000e900210c2300614f78000d00370032
:1051d8000040800011408000e00f5000e08f580030
:1051e80003003200343207000004e00005003200fa
:1051f80070c0b3001047980091812000914078005a
:10520800014f78001e4090000004e00012003200b8
:105218000080eb00d5090700200798004507070024
:10522800300798003e0090000000e0000a003200bd
:105238003e0090009e409000014878003e0090009b
:105248009e407800114098003e009000ae0090000b
:105258001100980099090700804080000000e900cb
:10526800804088000300370000000000010037007c
:10527800000000000080fa00000006000400fa00a8
:10528800000f780021479800324798001e007800e8
:105298000000e00004003a0050222900e30807005b
:1052a8000040eb0016003700ae40900030c2b3005b
:1052b80080cf50000200360000c0eb00100037001d
:1052c8009e0078002e4090000080fb000080400087
:1052d800be409000014878002e4090000080fb00fe
:1052e8008000e80040022000808f50000200340057
:1052f80000c0eb00020037002e4090000040e8009c
:105308000080fa00000006000600fa00000f78008e
:1053180021479800220798001e0078000000e0004e
:1053280014003a00d0242900c00807000040eb0010
:105338002b003700ae40900030c2b30080cf500041
:105348000200360000c0eb00250037009e00780000
:105358002e4090000080fb00008040008040eb0061
:10536800014878002e4090000040e800204798004f
:1053780001003700000000002e4090000080fb0074
:1053880061006000004078000004e000e9ff3a0096
:105398002e4090000080fb008080e8004002200042
:1053a800808f50000200340000c0eb000c00370072
:1053b8009e0078002e4090000080fb000000d10085
:1053c800004078000080fb000000400000804000a2
:1053d800ae009000010878002e40900000c0e80060
:1053e8000080fa00000006000800fa00000f7800ac
:1053f8002147980022079800330798001e0078007c
:105408000000e00014003a00602729008708070020
:105418000040eb002a003700ae40900030c2b300d5
:1054280080cf50000200360000c0eb002400370097
:105438009e0078002e4090000080fb000080400015
:105448008040eb00014878002e4090000040e800c2
:105458002047980001003700000000002e4090000f
:10546800634060000004e000ebff3a002e4090002b
:105478000080fb00e400400040022000808f5000c4
:105488000200340000c0eb000d0037009e007800d9
:105498002e4090000080fb004200de0000407800b3
:1054a8000080fb004200dd00008040002e019000db
:1054b800be0190000288be002e409000644040006b
:1054c8000080fa00000006000c00fa00200798008f
:1054d8003107980042079800234f98000000eb001e
:1054e800000f78000040eb0020479800ae4890007d
:1054f80031479800fe0037002e0090001e00400043
:105508009040780050c2b30080cf5000f0003a00bd
:105518002e4090000040e800204798002e40900060
:10552800ef4f500004003600f02929003f0807001b
:105538000040eb00fa0037001e0fe80001003700ba
:105548001e0fe8002e0090001e00400090407800da
:10555800f0c2b30080cf5000060034002e00900047
:105568001e0040009040780090c3b30080cf5000e8
:10557800f3ff34002e0090001e0040009040780099
:1055880030c2b30080cf5000edff32002e009000f3
:105598001e00400090407800e0c2b30080cf500069
:1055a800e7ff32002e0090001e00400010407800f7
:1055b8000004e000d40032002e0090001e004000dd
:1055c800104078000000fb0081062000810f500089
:1055d8007300320081062000810f500011003c004a
:1055e80021062000810f5000930032002106200080
:1055f800810f500004003c0081052000810f5000fd
:1056080024003200b200370041062000810f50000c
:105618001500320061062000810f5000340032006e
:10562800ab00370031072000810f50002400320002
:1056380031072000810f500004003c00c106200003
