:020000040000fa
:080000000001040000000000f3
:020000040000fa
:04000800580200009a
:020000040000fa
:04000c006a02000084
:020000040000fa
:040010007a02000070
:020000040000fa
:040014006002000086
:020000040000fa
:040018007202000070
:020000040000fa
:04001c00c405000017
:020000040000fa
:04002000c405000013
:020000040000fa
:04002400c40500000f
:020000040000fa
:04002800c40500000b
:020000040000fa
:04002c00c405000007
:020000040000fa
:04003000c405000003
:020000040000fa
:0400340020020000a6
:020000040000fa
:04003800c4050000fb
:020000040000fa
:04003c00c4050000f7
:020000040000fa
:04004000c4050000f3
:020000040000fa
:040044008202000034
:020000040000fa
:04004800c4050000eb
:020000040000fa
:04004c00c4050000e7
:020000040000fa
:04005000c4050000e3
:020000040000fa
:04005400060300009f
:020000040000fa
:04005800b0020000f2
:020000040000fa
:04005c00c4050000d7
:020000040000fa
:04006000c4050000d3
:020000040000fa
:04006400c4050000cf
:020000040000fa
:04006800c4050000cb
:020000040000fa
:04006c007403000019
:020000040000fa
:04007000c4050000c3
:020000040000fa
:04007400c4050000bf
:020000040000fa
:04007800c4050000bb
:020000040000fa
:04007c00c4050000b7
:020000040000fa
:04008000c4050000b3
:020000040000fa
:04008400c4050000af
:020000040000fa
:04008800c4050000ab
:020000040000fa
:04008c00c4050000a7
:020000040000fa
:04009000c4050000a3
:020000040000fa
:04009400c40500009f
:020000040000fa
:04009800c40500009b
:020000040000fa
:04009c00c405000097
:020000040000fa
:0400a000c405000093
:020000040000fa
:0400a400c40500008f
:020000040000fa
:0400a800c40500008b
:020000040000fa
:0400ac00c405000087
:020000040000fa
:0400b000c405000083
:020000040000fa
:0400b400c40500007f
:020000040000fa
:0400b800c40500007b
:020000040000fa
:0400bc00c405000077
:020000040000fa
:0400c000c405000073
:020000040000fa
:0400c400c40500006f
:020000040000fa
:0400c800c40500006b
:020000040000fa
:0400cc00c405000067
:020000040000fa
:0400d000c405000063
:020000040000fa
:0400d400c40500005f
:020000040000fa
:0400d800c40500005b
:020000040000fa
:0400dc00c405000057
:020000040000fa
:0400e000c405000053
:020000040000fa
:0400e400c40500004f
:020000040000fa
:0400e800c40500004b
:020000040000fa
:0400ec00c405000047
:020000040000fa
:0400f000c405000043
:020000040000fa
:0400f400c40500003f
:020000040000fa
:0400f800c40500003b
:020000040000fa
:0400fc00c405000037
:020000040000fa
:04010000c405000032
:020000040000fa
:04010400c40500002e
:020000040000fa
:04010800c40500002a
:020000040000fa
:04010c00c405000026
:020000040000fa
:04011000c405000022
:020000040000fa
:04011400c40500001e
:020000040000fa
:04011800c40500001a
:020000040000fa
:04011c00c405000016
:020000040000fa
:04012000c405000012
:020000040000fa
:04012400c40500000e
:020000040000fa
:04012800c40500000a
:020000040000fa
:04012c005e0300006e
:020000040000fa
:04013000c405000002
:020000040000fa
:04013400c4050000fe
:020000040000fa
:04013800c4050000fa
:020000040000fa
:04013c00c4050000f6
:020000040000fa
:04014000c4050000f2
:020000040000fa
:04014400c4050000ee
:020000040000fa
:04014800c4050000ea
:020000040000fa
:04014c00c4050000e6
:020000040000fa
:04015000c4050000e2
:020000040000fa
:04015400c4050000de
:020000040000fa
:04015800c4050000da
:020000040000fa
:04015c00c4050000d6
:020000040000fa
:04016000c4050000d2
:020000040000fa
:04016400c4050000ce
:020000040000fa
:04016800c4050000ca
:020000040000fa
:04016c00c4050000c6
:020000040000fa
:04017000c4050000c2
:020000040000fa
:04017400c4050000be
:020000040000fa
:04017800c4050000ba
:020000040000fa
:04017c00c4050000b6
:020000040000fa
:04018000c4050000b2
:020000040000fa
:04018400c4050000ae
:020000040000fa
:04018800c4050000aa
:020000040000fa
:04018c00c4050000a6
:020000040000fa
:04019000c4050000a2
:020000040000fa
:04019400c40500009e
:020000040000fa
:04019800c40500009a
:020000040000fa
:04019c00c405000096
:020000040000fa
:0401a000c405000092
:020000040000fa
:0401a400c40500008e
:020000040000fa
:0401a800c40500008a
:020000040000fa
:0401ac00c405000086
:020000040000fa
:0401b000c405000082
:020000040000fa
:0401b400c40500007e
:020000040000fa
:0401b800c40500007a
:020000040000fa
:0401bc00c405000076
:020000040000fa
:0401c000c405000072
:020000040000fa
:0401c400c40500006e
:020000040000fa
:0401c800c40500006a
:020000040000fa
:0401cc00c405000066
:020000040000fa
:0401d000c405000062
:020000040000fa
:0401d400c40500005e
:020000040000fa
:0401d800c40500005a
:020000040000fa
:0401dc00c405000056
:020000040000fa
:0401e000c405000052
:020000040000fa
:0401e400c40500004e
:020000040000fa
:0401e800c40500004a
:020000040000fa
:0401ec00c405000046
:020000040000fa
:0401f000c405000042
:020000040000fa
:0401f400c40500003e
:020000040000fa
:0401f800c40500003a
:020000040000fa
:0401fc00c405000036
:020000040000fa
:10020000af4f23000eff27000e0188000000000002
:10021000000020000000e000020032000001200089
:100220002002880014000700590207000000e000c7
:1002300003003a00201625000100200002003700cc
:100240000000200001002000810f7000010032003a
:1002500014000700000020000000e000020032004f
:1002600000000200000000009e48020000000000a4
:100270000040da000000fe004440a900c028200031
:100280000000e00003003200002020009001880000
:100290004440a800000006008a1f78008b1f7800e9
:1002a00000000600a1028800800478000000eb0036
:1002b0001f003700e284440054a0b4009905ba003e
:1002c000e284440054a0b4009906ba00e2844400d9
:1002d00054a0b4000006eb00476fde00fd07b2003b
:1002e000ae018800636ce10003003a00eaff0700fa
:1002f0000000eb000e003700606ce10008003a00df
:10030000004deb000a05e800020039003420ec0043
:100310000af0a0008b05e900f9ff3e000400370059
:100320006168e100010032000086eb000b0007006d
:1003300019c7ba001905ba000e04e00003003a001c
:100340000a00e000dbff3a0000000600fe07b200f2
:10035000ae0288008a047800f5ff37000cd0a300b5
:10036000e20f4d001c00390089027800354dba00bb
:100370000a05e800020039003420ec000af0a00071
:100380008b05e9000f003200254dba000a05e80090
:10039000020039003420ec000af0a0008b05e900cf
:1003a000080032000c00e0000600320015cdba0053
:1003b0000a05e800020039003420ec000af0a00031
:1003c0008b05e9008984e80054a0b4000b00e0002c
:1003d000e2ff3a00000006009902ba00055d7800cd
:1003e0008b05e900f7ff3200c82ade00055d7800c2
:1003f0008b05e900f3ff32000c00e000f1ff320052
:1004000019ddba00eeff37003a2c040000000000ae
:10041000684d0400000000004a4d04000000000088
:1004200070580400000000001e4a04000000000094
:100430009406040000000000100b040000000000ff
:100440003600f800809fbe00829fbe00849fbe00e1
:10045000869fbe003200f8003400f8001000200033
:10046000a001880000202000900188000000fa0010
:100470008860a900801307000000e000030032003c
:100480007459020000000000000000000080fa0023
:100490003400f9003200f9004f03be004f02be00e5
:1004a0004f01be004f00be003600f90000400600bc
:1004b0003600f8008020a9000000eb00f32b0700b5
:1004c0003600f800f52b07008040a900100020003e
:1004d000ee2b07003600f8008060a9002000200005
:1004e000ea2b07003600f8008080a90030002000c9
:1004f000e62b07003600f8008600a90070002000f7
:10050000e22b07003600f800809fbe00829fbe00ed
:10051000849fbe00869fbe000000fa009c2a070050
:10052000704f2300104078008040e800704f230097
:1005300001487800604f230011c0b30001487800e3
:1005400088e0a9000080fa004f03be004f02be0001
:100550004f01be004f00be003600f900004006000b
:10056000809fbe000000fa007183810000202000ff
:10057000008060000000e000020032009980a900c5
:100580001f0037008980a9001800370060838100b0
:10059000104078000080fb00e01c88006083810030
:1005a0000000e8006083890061838100001b230054
:1005b000808f500002003a0000072300608389000a
:1005c000708381000080a1007083890061838100b5
:1005d00050838100808f500004003a0070838100b6
:1005e0000090a0007083890005003700d11c8000b6
:1005f00000202000008060000000e000e3ff3200e7
:100600000080fa004f00be00004006003600f800ef
:10061000809fbe00829fbe00849fbe00869fbe005a
:100620000000fa001800370030838100f11c8000c0
:100630008140780001487800308381000000e800a4
:10064000308389003183810040212300808f500056
:1006500002003a00001b2300308389007083810070
:100660000010a100708389003183810040838100e4
:10067000808f500004003a00708381000000a000c9
:100680007083890004003700d01c80006100600086
:100690000000e000e4ff3a008960a900412a070059
:1006a0000080fa004f03be004f02be004f01be00a3
:1006b0004f00be003600f90000400600801f7800a1
:1006c0000000fa00d01c8000620060000000e00022
:1006d000010032009a23a9009020a9000080fa00ae
:1006e0004f007800004006003600f800809fbe00f2
:1006f000829fbe00849fbe00869fbe000000fa005d
:100700008a20a900f12480000008200000806000f9
:100710000000e000080032009ee4a9002428ef0059
:1007200050418000200090008000eb00010878001c
:100730002a28ef000d013700204180008000eb00e7
:10074000b200200003002000820f5000838f580069
:10075000fc003e00006001000b003700390037004c
:10076000750037009c003700f3003700c8003700e1
:10077000d9003700f0003700db003700f100370008
:100780003400370050003700c08120002000900066
:10079000620060000000e000f3003a00c081200029
:1007a0001000900050418800c0812000100090008f
:1007b0001040780026e8b700c081200010009000ab
:1007c0001000900040418800c0812000100090007f
:1007d000e6004000c081200011009800c081200088
:1007e00090009000004e2300808f500003003a00dc
:1007f000c0812000a14d230011009800c08120007d
:10080000a00090000100a10021009800c0812000fc
:1008100090009000c081200010007800808f500070
:1008200004003a00c0812000a00090000110a00048
:10083000210098009a04a800200020002041880090
:10084000ca0037009a24a800200020002041880018
:10085000c6003700f12480000000280000806000fe
:100860000000e00008003200c081200060409000dd
:100870008040e800c08120006140980040002000d6
:10088000d2250700b9003700604180008000d10008
:10089000f00f200000806000b024880060418000dc
:1008a00061006000004078000004e00003003200b6
:1008b000b000200020418800ac003700300020004c
:1008c00020418800a9003700f124800000002800a2
:1008d000008060000000e00008003200c0812000bd
:1008e000604090008040e800c08120006140980096
:1008f00040002000b52507009c0037009a24a8007e
:10090000604180004800de00e6006000000f20002b
:100910000100700060418800604180000000a0007c
:100920006041880010c0b3002ee8b700200020000e
:10093000204188008d0037002ec8bf00e14f5000d5
:100940000a003200404180001000780060418800b9
:10095000404180002000900080418800404180009c
:100960002040900032e8b700010037002e68ef0009
:1009700061418000f00f2000808f50000900360098
:10098000604180004800de00e6006000000f2000ab
:1009900001007000b0248800a000200020418800e1
:1009a0007200370060418000b02488006041800000
:1009b00061006000004078000004e00003003200a5
:1009c00050002000204188006800370030002000df
:1009d0002041880065003700f124800000002800d5
:1009e000008060000000e00009003200c0812000ab
:1009f000604090008040e800c08120006140980085
:100a00009fe4a90050002000702507005700370020
:100a100032c8bf008080fb008100e900cf08de0003
:100a2000814078000040e90032e8b7000104e000ae
:100a300010003200404180006600400040418800c4
:100a400026c8bf000040e90026e8b70026c8bf005e
:100a50000004e00003003a00200020005b250700ae
:100a6000420037009a24a80020002000204188007e
:100a70003e00370080418000904078008180fb007c
:100a8000b12488000000e80080418800370037006a
:100a9000f124800000002800008060000000e000d9
:100aa00009003200c0812000604090008040e800d2
:100ab000c0812000614098004000200043250700cd
:100ac0009fe4a900290037009a64a8008000200054
:100ad0002041880025003700800020002041880048
:100ae0009a64a8002100370080418000a124800082
:100af00081407800014878000000e80080418800cb
:100b000032c8bf000040e90032e8b70032c8bf0079
:100b10000004e000040032009aa4a9006000200054
:100b200020418800020037009aa4a800162507007b
:100b30009a84a8000d00370020002000232507001c
:100b40000a003700c0812000604090008040e8002b
:100b5000c081200061409800600020001b25070034
:100b60000000000001003700000000000080fa00d3
:100b70004f03be004f02be004f01be004f00be003b
:100b80003600f900004006000040da000000fe00d8
:100b9000000005006022b800060220000000d0001e
:100ba0008180d2000482d2008582d2000000a000a1
:100bb0000202520083825a00030031000202420006
:100bc00083824a000000a1000603e900f3ff3a0017
:100bd000000006000003b1000b0035009000b100da
:100be000080034008000b100070035005000b1005b
:100bf00004003400b001b100030035005000b10022
:100c000001003c001000050000000500090037004d
:100c100030427800b1417800834f52000400320026
:100c200010002000060031000080eb0000000600ec
:100c30000201e9000200e000f5ff3a000000eb00cd
:100c4000000006008001780002003700b1597800ea
:100c50000201e9000200e000fcff3a00000006008b
:100c60008001780002003700815978000201e90014
:100c70000200e000fcff3a000000060000017800de
:100c8000820178003204e000fdff3a0003017800a1
:100c9000b1417800035978000304e000fcff3a00fa
:100ca0000000060000017800b14178000359780087
:100cb0000304e000fcff3a0000000600800078001a
:100cc000010178003104e000fdff3a00000051000e
:100cd00000000600889fbe00810478001944780057
:100ce0000804e0000e00320006003700d241780010
:100cf0000304e0000a003200d1cf1100fbff3200f4
:100d00000000e8008800fb00340207000000e0005b
:100d1000030032000901780080007800f3ff3700fb
:100d20004f04be0000000600881f7800020478000f
:100d300008017800c3ff0700080040004f04780056
:100d4000000006000000fa00881f78000004780008
:100d5000ea8157003fb99700880078004069200079
:100d6000070007000000e000020035008040eb00b3
:100d7000017478004f0478000080fa00000006003b
:100d80006200fa00889fbe008a1f78000005780084
:100d900081047800020478008300780080f92f0035
:100da0000f0040001c0207009a979f00a9979f0020
:100db0000000eb00b09f9f001885fb008a04fb0039
:100dc0000a05ea004f55de0050022000808f5400d3
:100dd0000d003200e10f55000b003a000a017800c7
:100de000880078002f9097009f91970003000100e2
:100df000a0979f000000e0008e0032003f9897000f
:100e00000000e800b09f9f000a0444005002200048
:100e1000808f5400040032000900e000e6ff3a0031
:100e20003f989700840037000000eb00909f9f00e0
:100e3000809f9f00f0979f00e0979f00d0979f00b2
:100e4000c0979f0007003700614a2300010050004f
:100e500000004000a149230061007800df9897005e
:100e600001007000d09f9f0088047800090478007a
:100e7000384578008a00fb00604a2300d70107004c
:100e80000000e000f0ff3a00a1c2b300814f55001e
:100e90000e003a00cf8897000180e900c08f9f00c4
:100ea00010007800c09f9f000000e00005003d009a
:100eb0000000ea00c09f9f005f9897000020a000fc
:100ec000d09f9f000904e8000f003700c09f9f00db
:100ed0000000eb0005003700f2ff2700820f5000f2
:100ee000020032006a01b900028040000904780063
:100ef00088047800b900fb000103b100e98f5000bd
:100f0000f5ff3600c09f9f00e0c2b300984f10006d
:100f1000020032000080eb0019003700a0c2b300cd
:100f2000d84f100007003a00cf8897000180e900f1
:100f3000c08f9f0010007800a09f9f000804e80069
:100f4000100037000000eb00a09f9f008800780091
:100f500005003700f3ff2700830f50000200320026
:100f60006a02b9000400410001047800880078009a
:100f70003101fb000203b100e90f5100f5ff36001b
:100f8000a09f9f00984478008900fb00204923001f
:100f9000920107000000e000020032000804e800af
:100fa000010037008044eb00c97f9f0080c6b3007a
:100fb00080cf540004003a0098cf14000a003a0091
:100fc0006640500006003700c0c6b30080cf540012
:100fd00005003a0098cf140003003a006540400035
:100fe000c07f9f000804e800e3fb2f008f814100d1
:100ff0001841780081f92f008f804000a0f92f0060
:101000000f004000100007000000e00009003a0057
:10101000e1fb2f008f804000a0f92f000f0040005f
:10102000d20507000000e000020035000804e800d7
:1010300061ff37000080eb004f0578004f04be00d1
:101040000080fa0000000600889fbe008a1f78001a
:1010500000047800824478000305780070c6b3006d
:1010600080cf540021003c0000c0e90080cf540034
:10107000cd003d007240500080cf5400340132005a
:101080000d003c006c40500080cf540047013c00f4
:1010900000c0e90080cf5400c3003d0050c2b3003f
:1010a00080cf54003e0132007c40400080cf54008d
:1010b0003e013a00bc00370010c6b30080cf540098
:1010c000b900320004003c006940500080cf540059
:1010d00036013a006600370030c6b30080cf5400b6
:1010e000180032000040e8000900370000c7b300d4
:1010f00080cf54000801320008003c0000c0e90025
:1011000080cf5400d100320059003c0065405000af
:1011100080cf540025013a000f00370050c7b300bc
:1011200080cf5400520032006340400080cf540012
:101130004f0032006540500080cf54001b013a0040
:10114000030137001181e9008208780078009000df
:10115000127578001b01370028609000c2c6b300ea
:10116000824f500007003a001101780064005100de
:10117000800878001000be004f89de0082017800f0
:101180001100370012c7b300824f50000300320035
:10119000a2c6b300824f500006003a001101780049
:1011a00068005100800878005001be004000be0079
:1011b000050037001180e9008008780010007800f1
:1011c000cf80de006109b900009cbe000294be0021
:1011d0002862900085c6b300854f52000d00320092
:1011e00025c6b300854f520004003a000000fb0002
:1011f000cf80de006109b9000800370045c7b300a1
:10120000854f520003003200e6c24200854f520073
:1012100004003a00cf80de006109b900009cbe00e6
:101220000294be003802be002803be007800900081
:10123000d1c2b300e00f5200e08f5a00e00f5b0014
:10124000e08f5b0008003500881090000118a300b3
:1012500002003200b1c2b300030037000108a3004e
:101260004c00320001c2b30001757800470037001e
:1012700028609000c2c6b300824f500006003a00ba
:101280001101780064005100800878001000be0051
:101290006011b8001100370012c7b300824f500030
:1012a00003003200a2c6b300824f500006003a008d
:1012b0001101780068005100800878005001be00dc
:1012c0004000be00050037001180e900800878006a
:1012d000100078008000eb006011b800009cbe0098
:1012e0000294be002862900085c6b300854f52006c
:1012f0000d00320025c6b300854f520004003a00ad
:101300000080fb008000eb006011b800080037008f
:1013100045c7b300854f520003003200e6c24200c9
:10132000854f520004003a008000eb006011b800c5
:10133000009cbe000294be00081090000038a3007c
:10134000140032003800be002801be00e00f50003b
:10135000e08f5800e00f5900e08f59000d00320077
:1013600080c7b30080cf54000300320080c5b300b3
:1013700080cf540007003a007800900001c3b3000a
:10138000017578000000e800097578000000e800a9
:101390007004980078009000000545006a049800e9
:1013a000894078006700370028619000c0c4b3000e
:1013b000804f510006003a0011017800680051008a
:1013c000800878005001be004000be0005003700d4
:1013d0001101780064005100800878001000be0000
:1013e0006f080700009cbe000294be00b800900089
:1013f000780090000100e00002003d00d1c2b3007f
:1014000008003700881090000118a3000200320085
:10141000b1c2b300030037000108a300040032008a
:1014200001c2b300017578000000e8007004980064
:1014300078009000000545006a0498008940780013
:1014400008007800770107006000370028619000ed
:10145000c3c6b3001180e900834f5100220032005f
:101460000a003c00e4c15100834f510025003200c6
:1014700083c1e800834f510013003200e8c15100de
:10148000834f51001e003a000a00370043c7b300e3
:10149000834f51001b003200e6c14100834f5100d1
:1014a00018003200e9c15100834f510014003a0086
:1014b000050037008008780010007800485c900034
:1014c0000848780041003700800878001000780054
:1014d000680a9000cfa2de00612bb9000498be001c
:1014e0000690be00390037008008780010007800b0
:1014f00068099000cf91de000288be0033003700fb
:101500001180e9008008780010007800680c9000d5
:10151000080878002d0037001180e9008008780065
:1015200010007800cf80de006109b900009cbe0089
:101530000294be0078009000000545006a049800ff
:1015400081c7b30008007800590307001f00370067
:101550001180e90080087800100578006a0498007e
:10156000d80c90000900e00004003d000a0078005b
:10157000d2fd0700800478000700370009017800d9
:101580008000eb000a0078001c0107000000e0006a
:10159000010032008a045000190c98000b0037003b
:1015a00078009000097578000600370078009000f8
:1015b000000545000904e00001003a0059c2b300eb
:1015c000094d78000000e800700498000000eb006e
:1015d0004f0578004f04be00000006000001eb003c
:1015e000030037000201e8000404e00007003200b5
:1015f0006103b8006112b8008601420066427a00b9
:10160000814f5200f7ff3a00010037008001eb00e4
:1016100003007800000006000108780000000600c2
:10162000881f7800020478000801780085fd070013
:10163000080040004f047800000006000000fa0097
:10164000881f780000047800ea8157003fb99700ae
:101650008800780000b12000070007000000e000cb
:10166000020035008040eb00017478004f047800e0
:101670000080fa00000006006200fa00889fbe00a9
:101680008a1f780000057800810478000204780041
:101690008300780080f92f000f004000deff070074
:1016a0009a979f00a9979f000000eb00b09f9f00b2
:1016b0001885fb008a04fb000a05ea004f55de008e
:1016c00050022000808f54000d003200e10f5500c1
:1016d0000b003a000a017800880078002f909700ec
:1016e0009f91970003000100a0979f000000e00079
:1016f0008e0032003f9897000000e800b09f9f00e6
:101700000a04440050022000808f5400040032007c
:101710000900e000e6ff3a003f9897008400370098
:101720000000eb00909f9f00809f9f00f0979f001c
:10173000e0979f00d0979f00c0979f000700370059
:10174000014c23000100500000004000414b2300e9
:1017500061007800df98970001007000d09f9f0023
:101760008804780009047800384578008a00fb0076
:10177000004c230099ff07000000e000f0ff3a0052
:10178000a1c2b300814f55000e003a00cf889700e8
:101790000180e900c08f9f0010007800c09f9f006b
:1017a0000000e00005003d000000ea00c09f9f002f
:1017b0005f9897000020a000d09f9f000904e800d8
:1017c0000f003700c09f9f000000eb0005003700ae
:1017d000f2ff2700820f5000020032006a01b900b8
:1017e000028040000904780088047800b900fb00fa
:1017f0000103b100e98f5000f5ff3600c09f9f0044
:10180000e0c2b300984f1000020032000080eb00ed
:1018100019003700a0c2b300d84f100007003a00eb
:10182000cf8897000180e900c08f9f0010007800ea
:10183000a09f9f000804e800100037000000eb00a4
:10184000a09f9f008800780005003700f3ff270065
:10185000830f5000020032006a02b9000400410008
:1018600001047800880078003101fb000203b10018
:10187000e90f5100f5ff3600a09f9f0098447800c3
:101880008900fb00c04a230054ff07000000e0006d
:10189000020032000804e800010037008044eb0039
:1018a000c97f9f0080c6b30080cf540004003a0077
:1018b00098cf14000a003a00664050000600370036
:1018c000c0c6b30080cf540005003a0098cf140082
:1018d00003003a0065404000c07f9f000804e80014
:1018e0001801fb00e3fb2f008f81410081f92f00dd
:1018f0008f804000a0f92f000f004000100007006b
:101900000000e00009003a00e1fb2f008f8040005a
:10191000a0f92f000f004000940307000000e00032
:10192000020035000804e80061ff37000080eb008a
:101930004f0578004f04be000080fa00000006004a
:10194000889fbe008a1f78000004780030c5b3006d
:10195000804f51000800320030c7b300804f510063
:101960000500320051c2b30078009000814f510051
:1019700017003a00140037001180e9008008780051
:10198000100578006a049800d80c90000900e00067
:1019900004003d000a007800c8fc070080047800bd
:1019a00007003700090178008000eb000a0078008a
:1019b000120007000000e000010032008a0450001d
:1019c000190c980009003700827178000500370073
:1019d000808141000204e00001003a0001417800ea
:1019e000824978000000e800700498000000eb00d5
:1019f0004f0578004f04be000000060003003700ca
:101a0000b0cf1000050032000201e900800178002b
:101a10000200e000faff3a00000005000300780031
:101a200000000600cf04b000889fbe008a9fbe0061
:101a30008c9fbe008e1f78000006780081467800db
:101a40003c00be002c01be00d0979f00e1979f0094
:101a5000f2979f00839f9f0010c6b30080cf56006f
:101a60001200320010c4b30080cf56000f003200c5
:101a70005c0890000000e00002003d0060002000d3
:101a8000090037000000e00008003a0070c6b3000b
:101a900080cf56000300320070c4b30080cf5600e0
:101aa00002003a0010002000500e98008c007800d0
:101ab00080fa2f000f004000d3010700e20f500012
:101ac0000f003a0030002000100e9800403523002f
:101ad00011c6b30081cf560019003200e4c04000a7
:101ae00081cf560016003200803523008140e80087
:101af00081cf560012003a00403523001000370015
:101b00000000e0001400340030002000100e9800a7
:101b1000c035230011c6b30081cf56000800320043
:101b2000e4c0400081cf560005003200003623009b
:101b30008140e80081cf560001003a00c035230003
:101b4000ec009000b0487800b06878001040780051
:101b500090409800a601370011c6b30081cf56000f
:101b60000300320011c4b30081cf56000e003a00ca
:101b7000ec00900002c3b300825878006106980020
:101b800082c5b30013c6b30083cf560001003a00ec
:101b900082c7b3008258780061069800fc0090006c
:101ba0008180e800710698000000e00005003a001e
:101bb000c0979f008001eb0022fb2f000f01410026
:101bc0008701370010c6b30080cf560006003200f0
:101bd00010c4b30080cf56009a003a00513723005a
:101be000d1b79f000200370042362300d2b79f00d2
:101bf0005c0890001b0220000000e000010035009e
:101c00008005e8000b05e8006022b8006033b800ea
:101c10005f909700ef9097007f9197008f999700c2
:101c2000a7050700000278003c00be002c01be00a2
:101c30000400e00001003d0003f0a200d0979f00e7
:101c4000e1979f00f2979f00839f9f00cf9197009d
:101c5000e4815100c3979f000040eb00a0779f00f4
:101c60003efb2f000f07470031003700c201200064
:101c700003002000a0fa2f000f004000d803070047
:101c80005f909700ef9097007f9197008f99970052
:101c900090b79f00a1b79f00b2b79f00c3b79f0046
:101ca0005e0607000004be00670555004240a9001b
:101cb0000c003400850607000002be000203be00cf
:101cc0001fb09700afb097003fb19700cfb197001a
:101cd0000d070700d0979f00e1979f00f2979f00a4
:101ce000839f9f00670747007000200005003700b2
:101cf0006f676400cc48dd004444de000884700057
:101d0000c4ccde00e00f5400e08f5c00050034001e
:101d10000000e900e10f4000f5ff3a000100370044
:101d20000067eb000000e900fdff3b00670747008c
:101d30000a00e000090034006022b8006033b800f7
:101d40005f909700ef9097007f9197008f99970091
:101d5000600507000000e000c4ff3c0032fb2f00dc
:101d60000f014100020757008e0178008b0f5700ca
:101d7000010034008b0178000300e0002b003500e7
:101d80000040eb008e8f51000a003d0082fa2f00c8
:101d90000f01410003004100b0489000f0c0b300c3
:101da000e7cf500003003c000040eb00010037008b
:101db000810178008300e90034fb2f000f0242000c
:101dc0000101420012427800804f5200f8ff3200b9
:101dd000ef4f500001003a000449e8000100e00024
:101de00007003d008301e8004f9097006400400029
:101df000c0979f0022fb2f000f0141000200370017
:101e000032fb2f000f01410003007800050037006e
:101e1000e24078008100fb005fb29700e4c07800e8
:101e2000017178000000e900f9ff3b005c089000b8
:101e30000000e000ea003d000300e900500e9800b9
:101e4000e70037005f949700ef9497007f95970025
:101e50008f9d97006022b8006033b8000800be0074
:101e60000a01be00160507000000e00005003d0065
:101e70000bf0a200d8979f00e9979f00fa979f0068
:101e80008b9f9f0070592700cf9097000088b90062
:101e9000026a2800130020006d050700640450004a
:101ea000c8979f0015003b0063041400c0ff2f007b
:101eb000000464000800ea00c0979f005f9097004c
:101ec000ef9097007f9197008f9997006a382300d1
:101ed000070037000808a300030032003a02be00e2
:101ee0002a03be00120607000884d10068054500d9
:101ef0000800e000f7ff3c001a0037000800e0008f
:101f00001c003200c0ff2f0000046400c8979f002f
:101f10006a3823006000b8000200200003ff23009d
:101f2000070037000808a300030032003a02be0091
:101f30002a03be00fe0507000884d100680545009d
:101f40000800e000f7ff3c000002be000203be00f4
:101f50005f909700ef9097007f9197008f9997007f
:101f6000e1040700d0979f00e1979f00f2979f0040
:101f7000839f9f005c0f900060c6b30080cf560027
:101f8000040032006000200061c4b30081cf56001d
:101f900002003a00cf9097006a8040000e07400090
:101fa000f30f5700010034003e01200000c3b300ce
:101fb000a0779f003bfb2f008f8545003500370041
:101fc0005fb09700efb097007fb197008fb997008f
:101fd000920507000004be00680757004240a900b0
:101fe00010003400b90507000002be000203be0065
:101ff0005fb09700efb097007fb197008fb997005f
:10200000410607006022b80046782d0077192400a9
:10201000c7050700d0979f00e1979f00f2979f00a8
:10202000839f9f00e88545008a0020000801be00cc
:102030000c003700a400200005002000a0fd2f00a8
:102040000f004000850207005fa89700efa89700e7
:102050007fa997008fb1970004c3b3008465410046
:102060000001be00e00f5100e08f5900060034006f
:102070000a05e900e10f4500eeff3a0002003700d3
:1020800000c3b300806578000a05e900fcff3b004f
:10209000e88545000e00e0000d0034005f909700d9
:1020a000ef9097007f9197008f999700d0b79f008e
:1020b000e1b79f00f2b79f0083bf9f006022b80086
:1020c0006033b800830407000000e000bcff3c0060
:1020d00031fb2f008f804000818555004f91970084
:1020e00067004100c0979f00020037008b05e900a0
:1020f0000000e900010178008200780003c3b3000a
:10210000b1cf1100f9ff3200c0979f00dc099000a9
:1021100061c6b30081cf56000300320061c4b30032
:1021200081cf560002003a000000e80009003700a5
:102130001000200051c6b30081cf560005003200c8
:102140000d40780050c4b2000080fb000000e900a0
:102150004f00de00830140008b8f510001003400ee
:102160008b0178000300e0001d00350000c3b300c0
:102170008b8f510006003d0062c27900694040002b
:1021800041c3b300814f520001003c006940500040
:102190008300e900810041000100370084017800dc
:1021a0000302e90001037800a142780080cf5200c9
:1021b000faff320091c3b300814f500001003a0092
:1021c000054be8000400e00005003d000201e900c5
:1021d0008301e8004f9297000402e800c4979f0033
:1021e0004f9297008d4078000c007800f7020700ae
:1021f0004f0778004f06be004f05be004f04be00db
:10220000cf04b10000000600889fbe0000047800e3
:10221000e68440001900d0004500de00f27f200077
:10222000820f500010003a00000ceb009904780077
:102230006f816400200020001b003a002101900003
:102240000200e00018003a00110190000200e000d6
:1022500015003a00100020001100e00012003200ca
:1022600020002000100037000000e00004003a00c9
:10227000010078000e0207000000e00008003c00aa
:10228000f20028001901610001fe2300810c710099
:1022900021c02f00010c40000080eb00020037003d
:1022a000000ceb000000eb004f04be000000060035
:1022b000fc874700889fbe008a9fbe008c9fbe009f
:1022c0008e1f78000006780080c5b30080cf5000d4
:1022d0000a0032007740400080cf50000a003200f0
:1022e0006940400080cf50000b00320010462300b0
:1022f00080bf9f00ae0020000a0037000245230087
:1023000082bf9f00060037001346230083bf9f0053
:102310008e002000030037001446230084bf9f0076
:102320000e0120003c02be002c03be000605be00cc
:102330000404be0040c6b30080cf5000030032004a
:102340006540400080cf50000b003a00e00f520083
:10235000e08f5a00e00f5b00e08f5b0006003d005d
:102360006000b8006011b800040450008584580073
:102370000605590087855900e80f57000400320010
:1023800040002000f00f570038003a0001003700ed
:1023900030002000e00f5400e08f5c00e00f5d0093
:1023a000e08f5d0004003a00dc0890008d01200001
:1023b0000100e000060032008e00e9008880600025
:1023c0008fba9700e5c07800f1ef9f007d012000f3
:1023d000800078008100e900050033008b05d10002
:1023e0000a85d3008984d3000884d300f9ff37001d
:1023f000089ebe000a96be00120037008d06e90056
:102400008e00e900848060000fb99700e2c1780077
:1024100082fd2f000f01410003f17e008000780053
:102420008100e900050033008783d1000683d300d3
:102430008582d3000482d300f9ff3700049ebe00da
:102440000696be003c02be002c03be00e00f520008
:10245000e08f5a00e00f5b00e08f5b008b003400e0
:102460000d00e000e5ff3c00880037002c60900084
:1024700081c6b300814f50000b00320006003c00c3
:102480000004e00008003200e6c05000814f500018
:102490004e003a0004003700c1c6b300814f50001f
:1024a0004a003a00210037000800e00004003a002a
:1024b0005c0890008d0120000000e0000600320062
:1024c000110009000e84d8000fb99700e2c078000f
:1024d000f1ef9f007d012000110009000e84d8005b
:1024e0000a003700110009000e04d8008d06e9002b
:1024f0000e81b900020454008fb8970061417c003e
:1025000081fd2f008f80400082f07e000004780063
:102510000800e000020032000d00e000f1ff3c0086
:10252000cfc4de00614db90025003700e00f540034
:10253000e08f5c0004003a005c0890008d012000f0
:102540000000e000070032006171b9000800be0021
:10255000ef0407008fb99700e3417800f3ef9f0085
:102560007d0120006171b9000800be0089f90700f3
:102570000b0037006171b9000800be00b40307000a
:102580008d06e90000f1b900020454000fba97006b
:10259000e4427c0084fd2f000f02420005f27e0021
:1025a0000004be00e00f5000e08f5800020032002f
:1025b0000d00e000efff3c004fcdde008a05780003
:1025c000089ebe000a96be0030003700e00f54009f
:1025d000e08f5c00e00f5d00e08f5d0004003a00da
:1025e0005c0890008d0120000000e000090032002e
:1025f0006172b900612bb9000800be000a01be007b
:102600006c0507000fba970064427800f4ef9f0052
:102610007d0120006172b900612bb9000800be0085
:102620000a01be005c0507000d0037006172b900a9
:10263000612bb9000800be000a01be006105070059
:102640008d06e90000f2b900040454008fba970027
:1026500065427c0085fd2f008f82420084f27e005f
:10266000009ebe000296be003c04be002c05be00cb
:10267000e00f5400e08f5c00e00f5d00e08f5d0034
:10268000020034000d00e000e8ff3c00e80f5700b6
:1026900010003a000c1090000038a3000d0032002a
:1026a000f78f560006003e0085fd2f008f82420006
:1026b000e5c07e0000c3b30080cf500005003200ab
:1026c0008d06e90002c3b30081fd2f008f8040001a
:1026d00082f07e0078811600120e98006c00900047
:1026e00083fd2f008f8141008d80410055f9070047
:1026f0001c089000dc089000810f500006003d008f
:1027000000805000000e98000c1090000040a100c6
:10271000001698000f0037000100e0000d003d009a
:102720008c109000f4806000f08f500009003a0097
:102730007c099000fc009000810051000c09900081
:1027400082805000008050004240a9000100340007
:10275000000e98004f0778004f06be004f05be00e0
:102760004f04be00cf01b100000006000400fa00d3
:10277000889fbe008a9fbe008c1f780000047800ee
:1027800001067800f80d90007800900080855500d3
:102790000808900080855500180890008085550035
:1027a00028089000808555003808900080855500e5
:1027b00048089000808555000002220090bf9f00cd
:1027c00000032300a0bf9f00081090000028a30072
:1027d00015003a000b00e000130034000b057800f0
:1027e0008a047800e20f550001003600290020001d
:1027f000c801900009017800ee8057005800900051
:1028000003000100500498000000e0008c0032003a
:102810006808900009004000600c98000905550008
:102820004240a900eeff3c00780190000200e00069
:102830000c003400c80190008c0078005800900013
:1028400003000100500498008080eb000000e000cd
:102850007c003200e8089000780090000080400082
:10286000600c9800880c90000900e0001100340012
:1028700009057800e28f5400010036002a0020008c
:10288000c80190000a017800ec80570058009000c1
:1028900003000100500498000000e00068003200ce
:1028a000680890000a004000600c98008a84540078
:1028b000edff3700180990000200e0000c00340022
:1028c000c8019000e800900058009000030001004b
:1028d000500498008080eb000000e00059003200b6
:1028e000e80890001808900000804000600c9800f4
:1028f000a80c90000900e0001100340009057800e0
:10290000e28f5400010036002a002000c801900028
:102910000a017800ec805700580090000300010085
:10292000500498000000e000450032006808900064
:102930000a004000600c98008a845400edff3700c4
:10294000380990000200e0000e003400e80090001a
:102950001808900080804000c80190005800900046
:1029600003000100500498008080eb000000e000ac
:1029700034003200e80890003808900000804000e1
:10298000600c9800c80c90000900e00011003400b1
:1029900009057800e28f5400010036002a0020006b
:1029a000c80190000a017800ec80570058009000a0
:1029b00003000100500498000000e00020003200f5
:1029c000680890000a004000600c98008a84540057
:1029d000edff3700081090008000eb000028a300f6
:1029e000180032000b00e000160034008b04780061
:1029f00009057800e28f5400010036002a0020000b
:102a0000c80190000a017800ee805700580090003d
:102a100003000100500498000000e00008003200ac
:102a2000680890000a004000600c98008a845400f6
:102a30004240a900eeff3c008000eb00010037009f
:102a40008080eb00010078004f0678004f05be0043
:102a50004f04be000080fa0000000600881f7800c6
:102a60008a9fbe008c9fbe00000478000205be0055
:102a70000406be000401be000a00be007402070086
:102a8000008cbe000c01be00a40307000005550029
:102a900081855d002a0498003b04980008007800b6
:102aa0004f06be004f05be004f0478000000060030
:102ab000e600400011017800050028008502610051
:102ac0006f016100820878000200320012002000cd
:102ad00011003700a0019000120020000300e00068
:102ae0000d003a00900190000300e0000a003a0057
:102af0001000e00008003a00360037006403400090
:102b00009608780080017800530b780090097800cf
:102b10000408780070015100110278000400e00000
:102b2000f6ff3200130037006402400014037800ff
:102b30004f33de00838141008308730080017800f9
:102b4000d3037800cf3bde00140378000603430074
:102b5000068a730013027800040242001003780012
:102b60004f33de008609720090017800038841002f
:102b70000201e90091017800ef8f5100eaff360071
:102b80001000370080017800530378004f33dd00d8
:102b90001002d1000408730064024000940378001e
:102ba000cf3bdd001303d100868973001103780049
:102bb0004f33dd009401d100030a73009108d10066
:102bc0000201e80091017800ff8f5100edff3e0007
:102bd000ef88610091887200020078000000060012
:102be0000400fa00889fbe0000047800e604440058
:102bf000190078008000d000c508de00f47f2000b6
:102c0000848f50000e003a00ef006000200020008a
:102c10006b003a00a80090000100e00068003a0054
:102c2000980090000100e00065003a0010002000cc
:102c30001800e00062003200200020006000370031
:102c40000100e0000a003a0008007800c2bf9f00bf
:102c5000d3bf9f0096ff0700800078000000eb00c4
:102c60004fb99700dfb997000100e00054003c0025
:102c70004f88de000281400083014800e07f200091
:102c8000800f5100e08f59000d0034001900e00062
:102c900004003d006000b8000200200003ff2f0088
:102ca000030037006000b8000200200003ff270087
:102cb000009cbe000294be001000200040003700bf
:102cc000e00f5100e08f5900050034004411dd0091
:102cd000f000280019006000800c710037003700f8
:102ce0001900780004002800040260006f006000f2
:102cf0000040a000800c7800d0fc2f00f1ff2f00d6
:102d0000800f5100818f590006003d00840c78002f
:102d10000000eb002004980010049800000ceb0069
:102d2000270037006f0141000600370008007800d7
:102d3000500c7800e40044001108780099087800ed
:102d4000800ceb00700051007001410001fe2f006b
:102d500082804000ef8f4000f4ff35000000ea0061
:102d6000150032008800780070011000d102780050
:102d7000822add00980178008019de00038c720041
:102d80006404440098027800822add0091017800f2
:102d90008019de0083887200990078000209dd0046
:102da000980078008008de00010c7100990078001e
:102db0000008de00800c7800990c72000080eb00a7
:102dc0004f04be000080fa0000000600f0874700b4
:102dd000889fbe008a9fbe008c9fbe008e1f780019
:102de00000047800814478000205be0004067800e3
:102df0000b00e00002003c001b0020008a4f230073
:102e000060c6b30080cf54000e00320060c4b3002f
:102e100080cf54000b00320070c6b30080cf540046
:102e20000300320070c4b30080cf540099003a0010
:102e3000e40f46007f00350058089000800f5600d0
:102e40007c003d000c06e80060c6b30080cf540053
:102e50001000320060c4b30080cf54000d00320077
:102e6000081090000038a30004003a0058089000b1
:102e7000808f550001003d005b0c980058089000c1
:102e80000c005000500c980002003b000000eb00ca
:102e9000500c980018089000e80090000c00e0002a
:102ea00026003c0002c3b300827078000000e800f6
:102eb000100c9800d80890000100e00003003c00ce
:102ec000881090000138a30005003200e80090004f
:102ed000e2c2b300827078000000e800100c980095
:102ee000580890008c00ea00810f500001003d005e
:102ef0000006ea008c00ea00210c9800000646005b
:102f00005c0c98008b0f5600010034000b06780013
:102f10003c0c9800e80090001808900000804000e9
:102f20000c0178008a00780046f7070058089000e6
:102f30000c0650004c0c9800be0037008c8f5500da
:102f400018003d00008040000b0178008a007800e6
:102f50003cf707001808900000804500100c98000e
:102f60008b0556002b0c9800d80890000100e0005b
:102f700003003c00881090000138a30006003200d6
:102f8000e8009000e2c2b300827078003808900038
:102f90000000e800300c980058089000400c9800a1
:102fa000a4003700008040000c0178008a007800ff
:102fb00024f707001808900000004600100c980045
:102fc0008c855500d80890000100e00003003c000b
:102fd000881090000138a30005003200e80090003e
:102fe000e2c2b300827078000000e800100c980084
:102ff00058089000808f550001003400800578004b
:10300000e800900018089000008040008c00450007
:103010000b0178000bf70700180890000b00400028
:10302000100c9800580890008b0550002b0c98004d
:103030008000370070c6b30080cf54000300320018
:1030400070c4b30080cf540012003a0058089000ba
:10305000808f550004003d00081090000038a30048
:1030600001003a005b0c9800580890000000e9004d
:10307000500c980002003b000000eb00500c980040
:1030800070c6b30080cf540009003a0059c6b3009f
:103090000c00370010c6b30080cf54000600320089
:1030a00010c4b30080cf540006003a00040037007b
:1030b00059c4b3000300370009c7b300010037004b
:1030c00009c5b30018089000e80090009a707800d5
:1030d0000000e800100c9800d80890000100e00003
:1030e00003003c00881090000138a3000500320066
:1030f000e8009000e2c2b300827078000000e800af
:10310000100c9800580890000000e00010003400f7
:103110008b05e900808f55000100340080057800a0
:10312000e800900018089000008040008a00e80045
:103130000b017800c3f60700180890000b00400050
:10314000100c9800580890008b0550002b0c98002c
:10315000e8009000180890000080400009587800ae
:103160000005e8000c00e00004003500b1c2b30027
:10317000014878008a06780004003700d1c2b30005
:10318000014878008a0678000c06ea00fd855700a1
:103190000007eb0009003700a20020008c00780037
:1031a000728057003b0007007fb097008fb89700f0
:1031b000816d7800000678000e07e8000c00e00042
:1031c000f5ff3c00e10f570013003c0050c6b30070
:1031d00080cf54000300320050c4b30080cf5400ad
:1031e00003003a008a06780000c3b300805e7800ce
:1031f0000e00e00008003a0000c3b300805e7800d3
:10320000050037000e07e900fc80570061407f0091
:1032100002c3b300825e40000e00e000f9ff3c00f4
:10322000e80090001808900000804000808656005a
:103230003d0c98000810900074006000f00f5000e2
:103240000e003a009808900078009000008040003e
:10325000a808900001004000b8089000010040005c
:10326000c808900001004000f8089000810f50004d
:1032700002003d0000805000000c98004f077800cd
:103280004f06be004f05be004f04be000f01b10047
:103290000000060080027800010378001100090098
:1032a0000203d80080017800830a78000299b900ef
:1032b0000201530092029800050078000000060009
:1032c0008f1fd1001c0307008f87e9000000e0007a
:1032d00000000600809feb00170307008f87e900be
:1032e0000000e000000006002800fa00889fbe00f1
:1032f0008a9fbe008c9fbe0003866b008f00070074
:103300006400e100440032006408e1004a00320039
:103310006100e100460032006108e100490032002e
:10332000ec0647006000b8003d02be003d03be0051
:10333000f48657006011b8003d04be003d05be0094
:103340007d0320000b0037000000a0008d06e9007f
:10335000130032000402420085824a0006034b003b
:1033600087834b0000004000818048000201490033
:10337000838149000802520089825a000a035b00d7
:103380008b835b00f0ff3b000802420089824a0009
:103390000a034b008b834b008d06e900edff3a00da
:1033a0008482720086827200f707b2008782720000
:1033b00001003200150020001e0490003e0b90001a
:1033c00006035400e63fb0000368a3000700320084
:1033d0000000a7000500a0008301d1000281d300f6
:1033e0008180d3000080d3000603e8008301d10070
:1033f0000281d3008180d3000080d3000002eb0063
:103400000482d2002100070003f0a1000cf0a70005
:1034100003f0a0005d003700640247006408e1008b
:10342000570032003400be003401be00f6ff370002
:103430006108e100520032006011b8006000b8007d
:10344000f1ff370003ff270002002000fbff3700d9
:10345000839f68000100e00002003d006000100052
:10346000e08018000300e00002003d006001110050
:10347000e0811900c7f507004f00e00002003b00a3
:1034800060001000e0801800000006001800200016
:1034900057002000080453000d003d0006002000e6
:1034a00097fc2f000740e1001e0034008482720068
:1034b000610260008301d1000281d3008180d300ca
:1034c0000080d3000804e800f8ff3a00470020001d
:1034d0006104600005047400040464000d003200ff
:1034e00061004000e080480060014900e08149003f
:1034f00003b8a500070032000603e8006538e100c4
:1035000004003a008301d1000281d3008180d300fe
:103510000080d300f87f20000830e1000300350070
:10352000080378006000b8006011b8004433dd0083
:10353000f300b20083017300000006006804470036
:103540000294be000094be00fc0447008694be00b6
:103550008494be0009007800c002070008007800cb
:10356000be02070099007800814f70000b003b00fd
:103570000800be00990207004f00b10003003700a9
:10358000f3ff2700f2ff2f006110b9004f06be00c5
:103590004f05be004f04be000080fa000000060088
:1035a000810378004c0007000001be006000b800f5
:1035b0000478a30013003a006220e10015003e00e9
:1035c0000d0039008301d1000281d3008180d30036
:1035d0008301d1000281d3008180d3008301d10017
:1035e0000281d3008180d3000538b000c42add00f9
:1035f000f300b2008381720007f0a70003f0a0007f
:1036000000000600f3ff2700f2ff2f006110b90051
:10361000fbff370003ff2700f7ff37001400fa0015
:10362000889fbe008a9fbe008c9fbe000004be0023
:103630000205be00680047000a90be000890be0068
:10364000860207000070a7000bf0a10030432000a5
:103650009e02900080825200b0fe2f000028e10000
:1036600011003d00b0fc2f000028e10015003400df
:103670001e0990008e0890007e0090000501b000a9
:103680000201d1008180d3000080d3008502e800d0
:10369000fbff3a000b00e000bcff3b0060001000a5
:1036a000e0801800b9ff3700f0ff2f00f1ff27007e
:1036b0000b00e000b5ff3b000100280000002000e7
:1036c000b2ff37006000b800b0ff37004f89de005e
:1036d0008201780088023700c70ade00f107b200d5
:1036e000f50fb20008003200e1cf420002003200c4
:1036f0000170a00024000500810f7000010032005d
:103700000408050044000500810f700002003a0023
:10371000140005008502e9000000400081c0480057
:10372000fcff3b000170a000240005000000000029
:103730002800fa00889fbe008a9fbe008c9fbe00b2
:1037400003866b007dff07000028a30064003a0099
:103750000128a30067003a000008a30062003a00b5
:103760000108a30065003a001e009000be0890000a
:1037700081064000ed3fb100f4805700ee0190005b
:10378000111ab8008e099000311bb8009e099000f4
:10379000311cb800511db800f485570046000700e1
:1037a000fe0190003a0007008b85e8003e0007000c
:1037b0008e09900040000700ee01900034000700e1
:1037c0008b85e800380007008e0990004000070054
:1037d0009e0990001b18b800890440000a85480023
:1037e000fe019000340007008b85e80038000700d8
:1037f000ee019000300007008e0990001b18b80001
:10380000890440000a8548000a98a30008003a008d
:103810000402420085824a0006034b0087834b0066
:1038200008044c0089844c000a054d008d06e9000f
:1038300084827200850273004c3add0085027200ba
:103840000100320015002000443ade001400b200ee
:103850004538de00cb45dd000b007000c540de00c2
:10386000cb4ddd008b8070004549de00cb55dd007f
:103870000b017100c551de000d03780003ff070046
:1038800003f0a1000cf0a70003f0a0003fff3700f9
:103890001b18b8008502400006834800e0834b00f7
:1038a00060044c00070037001b18b80006034000f6
:1038b00087834800faff37001b18b80087034000d1
:1038c00008844800e0844c0060054d0000000600bc
:1038d0001b18b8000804400089844800faff37002c
:1038e0000108a30026ff3a005800be005801be00a0
:1038f000e3ff37000008a30021ff3a000904780025
:10390000f9ff37000000000007f0a2000c013700ab
:10391000a0f407000400be0000000600020ab9007f
:10392000001bb9000200b800810042008100430082
:1039300000000600889fbe008a9fbe00300442003f
:10394000b0844a0030054b0090854b006000b10008
:103950000898be000a90be000440e10005c8e100de
:1039600006d0e10007d8e100020031006800400005
:103970001008e8004f05be004f04be00000006001e
:10398000889fbe008a9fbe003004be002005be0096
:103990000418540005985c0006185d0007985d0047
:1039a000110020000440e10005c8e10006d0e1005c
:1039b00007d8e100010039008000eb0010881000fa
:1039c0004f05be004f04be00000006001200fa00c2
:1039d000889fbe008a9fbe008c9fbe00e0b79f00fc
:1039e000f1b79f0082bf9f0093bf9f000605be00f6
:1039f0000404be000000eb00d0b79f00c0b79f00da
:103a0000b0b79f00a0b79f0090b79f000006eb00e3
:103a10005fb19700cfb09700820141003fb097009f
:103a20000200e00004003d00370007007e805700e0
:103a3000c0ff070003003700330007007e805700f7
:103a4000cfff0700dfb697000d00e0000c00350047
:103a50006fb29700ffb297000fbb97009fbb970014
:103a600010002000010020006011b8000002720068
:103a70008182720002037300838373001b000700be
:103a80000c06e80001042000810f5600e0ff3a0018
:103a90000d00e00004003d000802be000a03be0065
:103aa0007e805700a3ff07005fa897000000e0009a
:103ab00005003a001fb29700afb297003fb39700de
:103ac000cfb39700090007006fb09700ffb09700d1
:103ad0000fb997009fb997004f06be004f05be0073
:103ae0004f04be000080fa0000000600010007003d
:103af00000000600a4b79f00b5b79f00c6b79f009f
:103b0000d7b79f00000006004f09de0082817100d8
:103b1000b3b79f004f01de008180400082807000bb
:103b2000a1b79f008fb097004f09de000000400052
:103b30000200700090b79f007fa897004f01de0041
:103b4000818040008280700081b79f000d000700d7
:103b50004f3ade000000400004007000f0af9f000c
:103b6000080007000402420085824a0006034b0059
:103b700087834b00dfff07000802be000a03be0078
:103b8000000006002fb29700bfb297004fb3970016
:103b9000dfb3970000000600881f7800180020009f
:103ba000881f780089ff07008f87e9004f0478009d
:103bb00000000600801feb0084ff07008f87e900ec
:103bc00000000600889fbe008a9fbe00e00f5000e4
:103bd000e08f5800e00f5900e08f59000c003d00c5
:103be0006044b8006055b8000000540081805c005b
:103bf00002015d0083815d001800200015000700b0
:103c000008003d00180007000004eb000500370025
:103c10000004eb000f00070002003d001200070047
:103c200018002000dcff07000800e000060032005a
:103c30006022b8006033b8000000520081805a0052
:103c400002015b0083815b004f05be004f04be0094
:103c500000000600e00f5200e08f5a00e00f5b000a
:103c6000e08f5b00000006006044b8006055b800bb
:103c70000402540085825c0006035d0087835d00ba
:103c800000000600889fbe008a9fbe008c1f78003f
:103c9000e00f5000e08f5800e00f5900e08f59000e
:103ca0000d003d006044b8006055b80000005400ad
:103cb00081805c0002015d0083815d001c002000aa
:103cc0000820e10009a8e1000ab0e1000bb8e1001a
:103cd0000d003d00080037000006eb00e00f520029
:103ce000e08f5a00e00f5b00e08f5b0006003d00b4
:103cf0006044b8006055b8000402540085825c003e
:103d000006035d0087835d00aaff07000c00e0004a
:103d1000060032006022b8006033b8000000520094
:103d200081805a0002015b0083815b004f067800ae
:103d30004f05be004f04be0000000600000000005a
:103d40002800fa00889fbe008a9fbe008c9fbe009c
:103d500007067800878669000c003b0003047800a2
:103d60008704780008f0a10009f0a100840f50003a
:103d7000858f5800860f5900890f5c0003003300bf
:103d80000cf0a20001003a000cf0a100ebfd0700ce
:103d90006400e1005f003200780147006408e10040
:103da000610032006c014700748557003200be008c
:103db0001201be003a04be001a05be001e039000a8
:103dc000be0a90008503530006003d000004fd007c
:103dd0008104fd000205fd008305fd008703ea0064
:103de000050378000df8a3000400320060041400fd
:103df000e0841c0060051d00e0851d006022b80005
:103e00007d0320000d38e1008006eb000b00390037
:103e10004433dd00f300b200830173003900370042
:103e2000848272000d027800e10664008b85d10067
:103e30000a85d3008984d3000884d3008703e9006e
:103e4000f7ff3b0008004000898048000a01490054
:103e50008b81490004003b0060001000e0801800e6
:103e600060011900e08119000358a3000900320025
:103e70008d82720084827200610260008301d10031
:103e80000281d3008180d3000080d3000603e800c4
:103e90001b0037000348a30017003a000600e000ab
:103ea000170034000603e9000d00a30000004800dd
:103eb0008180480002014900838149000348a30032
:103ec0000f003a000600e000090034000603e90094
:103ed00000004000818048000201490083814900c0
:103ee00001003a000003eb000348a300f5ff320095
:103ef0006022b8000200370084827200618266008e
:103f000062fd070003f0a1000cf0a70003f0a00081
:103f10009efd3700640147006408e10002003a009a
:103f20000df8a30096fd3a003200be001201be005b
:103f300096fd370000000000889fbe008a9fbe00eb
:103f40008c9fbe000404be000605be00809fbe001c
:103f5000829fbe002f000700040678000800be0004
:103f60000a01be002b000700840678004f03be0044
:103f70004f02be008d4f76007fb0970013003300d4
:103f8000f0ff2f008b8f6b0006003b000d066600d4
:103f90000c00a7000a00370007f0a6001000200060
:103fa0000a003700880f5200898f5a008a0f5b0081
:103fb0008b8f5b00030039001000200001003e00e1
:103fc0000000200007f0a7000000ea004f06be0036
:103fd0004f05be004f04be0000000600e482400012
:103fe0001078a30007003200640240001178a3009b
:103ff0003400be001401be00040032000330a700ec
:10400000000006003500be001501be000330a00010
:104010000000060005ff270005826100070032004e
:104020000428e1000100320024000500060007001a
:1040300001003a00440005000408050002000700e2
:10404000f9ff3a00140005006f82610081027000e0
:104050008502710085027200000006008000780071
:104060005002be005003be004439de00f700b2002b
:10407000f37f200003016100090032000218e10013
:1040800016003a008501720083017300838173007a
:104090000008200015003a004000200013003700ff
:1040a00085017200830173008381730005003a006b
:1040b00004a8be0006a8be00100020000b003700b8
:1040c0000201e9000402420085824a0006034b0017
:1040d00087834b000748a300f9ff32000740a00088
:1040e00004a8be0006a8be002000200080009800a2
:1040f0009200980000000600881f780003047800f2
:104100000300e00007003d0060001000e0801800a0
:1041100060011900e081190002003b0001f02d0050
:10412000030037000400070008f0a70003f0a00018
:104130004f04780000000600889fbe0000827000d7
:104140000402710004827100240032003643200012
:10415000c50020008383cf000a0039000541b1006b
:104160008283cf00070039000541b1008183cf0071
:10417000040039000541b1008083cf0001003900ff
:104180000541b10085c353006022b800120032001f
:104190000a003b0084827200610260008301d1004a
:1041a0000281d3008180d3000080d3000603e800a1
:1041b0008743e800f7ff3a0007003700000040009f
:1041c0008180480002014900838149000603e9001b
:1041d0008743e900f9ff3a00acfc07004f04be003a
:0441e00000000600d5
:020000040000fa
:1041e4002d2d000000000000000000000000000071
:1041f400000000002d2d00006d6f000064650000bc
:104204006c000000000000002d2d00007665000009
:1042140072730000696f00006e0000002d2d000015
:1042240074790000706500000000000000000000c8
:104234002d2d00007365000072690000616c0000a0
:10424400000000002d2d0000646e000073000000cb
:1042540000000000000000002d2d0000706f000021
:104264007274000000000000000000002d2d00000a
:1042740070720000730000000000000000000000e5
:104284002d2d000070770000730000000000000076
:10429400000000002d2d0000707400007300000069
:1042a40000000000000000002d2d000064610000eb
:1042b4007465000000000000000000002d2d0000c7
:1042c400617000006e0000000000000000000000ab
:1042d4002d2d0000767000006e000000000000002c
:1042e400000000002d2d0000736500006e730000b7
:1042f40000000000000000002d2d00007465000087
:104304006d70000000000000000000002d2d000072
:10431400687500006d00000000000000000000004f
:104324002d2d000070720000657300007300000002
:10433400000000002d2d0000776400006972000069
:1043440000000000000000002d2d00007773000025
:104354007064000000000000000000002d2d00002b
:10436400777300006d610000780000000000000019
:104374002d2d0000777300006d6900006e000000b1
:10438400000000002d2d000072610000696e000025
:1043940000000000000000002d2d000073720000da
:1043a4006164000000000000000000002d2d0000ea
:1043b400747300006f6900006c00000000000000ce
:1043c4002d2d0000626100007474000000000000e4
:1043d400000000002d2d00006e69000076650000cd
:1043e4006c000000000000002d2d0000697000002a
:1043f4000000000000000000000000002d2d00005f
:1044040066770000000000000000000000000000cb
:104414002d2d0000696d000065690000000000009a
:10442400000000002d2d0000696d0000736900007c
:1044340000000000000000002d2d00007367000044
:104444006e6c000000000000000000002d2d000034
:104454006d6e00006f00000000000000000000000e
:104464002d2d0000736100006d700000000000003d
:10447400000000002d2d0000776900007065000029
:1044840000000000000000002d2d000072650000f7
:104494007365000074000000000000002d2d000072
:1044a400686500006c70000000000000000000005f
:1044b4002d2d0000736d00007367000000000000e4
:1044c40000000000000000000000000000000000e8
:1044d4000000000000000000257300003a250000e1
:1044e400730a0000004c00006120000061630000ba
:1044f40063690000f36e00002027000025730000ac
:10450400272000006e6f000020650000732000006b
:1045140076e100006c690000646100002e0a00006e
:10452400004300006f6d0000616e0000646f0000c6
:10453400206500006e6300006f6e0000747200005e
:10454400616400006f3a000020250000732e000013
:10455400204e00004f200000494d0000504c000048
:10456400454d0000454e000054410000444f0000fa
:104574000a0000002d2d0000686500006c7000002a
:104584003a0000002c200000000a00000043000054
:104594006d64000020250000732000004e4f0000d1
:1045a400204900004d5000004c4500004d450000de
:1045b4004e540000414400004f000000436f0000cf
:1045c4006d6100006e6400006f2000004e4f00001b
:1045d400206500006e6300006f6e000074720000be
:1045e400616400006f3a000020250000732e000073
:1045f400204f000062740000656e000067610000d7
:1046040020610000797500006461000020630000ef
:104614006f6e0000202d00002d680000656c000006
:10462400702e00000a0000004f4d0000582d0000bd
:1046340053000000322e0000303000000050000013
:104644006f74000000250000733a0000202500006c
:10465400642000003a200000256400000a000000e5
:1046640009090000090900000900000011110000f7
:10467400222200003333000044440000555500005a
:10468400666600007777000088880000999900002a
:10469400aaaa0000bbbb0000cccc0000dddd0000fa
:1046a400eeee0000cecd0000acab000049440000ab
:1046b4004c45000000a50000a5a50000a5a500002c
:1046c400a5a50000a5a50000a5a50000a5a50000be
:1046d400a5a50000a5a50000a5a50000a500000053
:1046e4004c430000440000004f4d000049580000b6
:0846f4004f4d00000000000022
:020000040000fa
:1046fc001000fa0020079800310798004207980034
:10470c005307980064079800750798006002200012
:10471c00861a0700000f78001e0078000000e000e9
:10472c000e0032004e009000000040007f1a07007f
:10473c00800078001e007800410898001e00780068
:10474c00400890000000e00004003a001e007800d1
:10475c00a11a07000000eb00000f78001e00780083
:10476c000000e000120032004e0090008000eb00d0
:10477c000001eb00821f78009e0378007e039000fe
:10478c00ee0290005e0290000001be00be009000a0
:10479c002e0090000b0007008f87e9001e007800a8
:1047ac006b00070010002000100798000200370073
:1047bc000080eb00100798001e0090000080fa00ab
:1047cc00000006001400fa0020079800310798003a
:1047dc0042079800530798006407980075079800e3
:1047ec00060f9800170f98004e0090000000400034
:1047fc00800078001e0890004008900001017800ad
:10480c00510a200013f107001e089000c008900008
:10481c00110798001e089000c00890004e019000ef
:10482c00f0ff2700000041000000400080804000a5
:10483c001e089000710898000000eb00000f780033
:10484c000d0037003e0090001e00400090407800a4
:10485c001e0890001e0040007a00400001487800bd
:10486c003e0090001e004000104078000004e00064
:10487c00050032001e0fe8001e007800e30f500008
:10488c00f0ff360001003700000000001e08900009
:10489c008040eb00515898007e009000e30f5000d0
:1048ac000200360030002000700798001e089000af
:1048bc00fe009000310898001e0890000080e8006f
:1048cc00ce1707001e0890006c004000cb170700a5
:1048dc001e0890009e089000410098007e009000f9
:1048ec00e40010001e089000610098001e08900063
:1048fc009e089000110898001e0990006000b800f6
:10490c0000119800111198001e0890008040eb00d7
:10491c00416098006e019000ae0090001e00900067
:10492c0006170700800078001e0890000108780028
:10493c000e0890000000e000030032000e0890000a
:10494c009e089000010878000080fa000000060024
:10495c000200fa00000f7800741707003040800046
:10496c000000e80030408800004080000000e000bb
:10497c0007003a009e00780001408800304080001b
:10498c00e10f50000d003a00c20307000b00370086
:10499c00604080000000e00008003a000040800009
:1049ac00b00890001e00780030089000808f5000f6
:1049bc0002003e009e00780001408800a04080006c
:1049cc000000e800a04088001e007800b0089000ad
:1049dc0050408000808f5000030036001e0078008d
:1049ec0030089000504088001e81e8001e007800be
:1049fc00300890006a00b90080007800e03c230089
:104a0c0000804000820078008317070054170700cd
:104a1c00604080000000e00009003200004080008f
:104a2c00b00890001e00780030089000808f500075
:104a3c000300310074590200000000000000000067
:104a4c000080fa00000006000c00fa0040079800f5
:104a5c00510798000000eb00000f78008701070059
:104a6c0041408000110798004e00900090007800a3
:104a7c005e00900000804000200798004e009000df
:104a8c00900078001e009000808f50000c003600c3
:104a9c004e009000900078002e009000808f500007
:104aac0012003600ae0090001e009000808f500067
:104abc000e00360010002000000f78000b003700ad
:104acc004e009000900078002e009000808f5000d7
:104adc0004003e00ae0090001e009000808f50003d
:104aec000200360010002000000f78004e009000ed
:104afc00ae009000010878001e0078000000e00075
:104b0c0005003200ae0090001e00900000805000a6
:104b1c008000eb00860507005e0107003007980057
:104b2c003e0090000000e00003003a0074590200bf
:104b3c0000000000000000000080fa0000000600e9
:104b4c000400fa00100798000000eb00000f78003a
:104b5c001e0090000000e000060032004701070034
:104b6c008000eb001e009000710507004901070052
:104b7c00000f78001e0078000000e00003003a00ef
:104b8c007459020000000000000000000080fa00d0
:104b9c00000006000c00fa0040079800510798002e
:104bac000000eb00000f78005e009000e30f500057
:104bbc00020036003000200050079800db1607007a
:104bcc004e0090000000e00002003a00004080001f
:104bdc00010037004e009000100798001e00900056
:104bec00b008900021079800ae0090005e00900085
:104bfc00808f500048003200de0090002e009000a4
:104c0c00808f50000c003600004080009e00900009
:104c1c00808f50000e00320000408000b0089000e1
:104c2c005e009000808f500009003e0010002000b4
:104c3c00000f780006003700004080009e009000b6
:104c4c00808f500002003a0010002000000f780006
:104c5c001e009000b0089000310798001e009000d4
:104c6c00de009000310898001e009000600090005b
:104c7c000000e000040035005e009000e40010002d
:104c8c001e009000610098001e00900050019000e2
:104c9c003e0090006a00b90080007800e03c2300e0
:104cac0000804000800f510015003a001e0090005b
:104cbc000080e800281707001e009000b008900044
:104ccc0050408000808f5000030036001e00900082
:104cdc0030089000504088001e0090000081e800d1
:104cec001e009000300890006a00b9008000780027
:104cfc00e03c23000080400082007800c6160700cc
:104d0c001e0078000000e00003003200745902001d
:104d1c000000000000000000911607000080fa005f
:104d2c00000006000400fa00100798007f16070028
:104d3c001e0090000000e00002003a0000408000dd
:104d4c00010037001e009000000f78001e80e80064
:104d5c00011707001e007800200890000000e000fa
:104d6c00030032009e0078006c804000fa160700a9
:104d7c001e80e8008000780040412300a616070042
:104d8c0077160700604080000000e000030032004e
:104d9c0066160700de02070071160700004080004f
:104dac009e007800808f50000e003a00604080001a
:104dbc000000e00004003200745902000000000002
:104dcc000000000007003700a1a0810030408000e7
:104ddc00808f500002003a000028ef0001003700dd
:104dec00910107000080fa00000006000600fa009e
:104dfc00200798000000eb00000f7800ae00900038
:104e0c00110798001e009000d00090004041230034
:104e1c00808f50000b003a001e009000a0089000fc
:104e2c00a0402300808f5000060032001e0090002e
:104e3c00200890000000e00002003a001000200062
:104e4c00000f78001e0078000080fa0000000600b9
:104e5c000400fa00100798009e009000010f7800e3
:104e6c001e0078000000e0002600320000408000a8
:104e7c009e007800808f5000220032002b16070015
:104e8c001e007800d9ff07000000e0001c00320073
:104e9c001e80e800b01607001e007800b0089000d5
:104eac0050408000808f5000030036001e007800b8
:104ebc0030089000504088001e81e8001e007800e9
:104ecc00300890006a00b90080007800e03c2300b4
:104edc0000804000820078004f1607001e0078000a
:104eec00b00890000040800030089000808f500087
:104efc00030039007459020000000000000000009b
:104f0c00171607000080fa00000006000800fa00df
:104f1c00300798000000eb00000f7800be009000f6
:104f2c00110798000000eb00200798001e0090006d
:104f3c00aeff07000000e00026003200d0408000e9
:104f4c000000e0001e003a001e009000b008900027
:104f5c000040800030089000808f50000200390023
:104f6c0010002000000f78001e0090000080e80068
:104f7c00791607001e009000b00890005040800089
:104f8c00808f5000030036001e0090003008900007
:104f9c00504088001e0090000081e8001e00900028
:104fac00300890006a00b90080007800e03c2300d3
:104fbc0000804000820078001716070005003700bb
:104fcc001e0090006c00400080007800a040230080
:104fdc00111607001e0078000080fa000000060081
:104fec000200fa00858120000002eb008001eb003a
:104ffc00820c200081352a00a0c32200bcfd0700d2
:10500c00000f78001e007800e10f50000d003a00f0
:10501c0011028000f0f12f00008060000050a00011
:10502c001002880000000000000000000080eb006f
:10503c00b040880010002000604088000828ef0075
:10504c008b1507000080fa00000006000000fa0033
:10505c0011028000f0f12f00008060000050a000d1
:10506c001002880000000000000000000c28ef0077
:10507c00971507000080fa00000006000000fa00f7
:10508c00d04080000000e800d04088000080fa008a
:10509c00000006000600fa000000eb00000f78008c
:1050ac000000eb0010079800a0150700d04080000e
:1050bc000000e900d0408800d04080000000e000f3
:1050cc0045003a00304080000000e0004200320011
:1050dc002100370080a0810030009000000f780084
:1050ec009e0078006c8040001b1607001e80e800b4
:1050fc00191607001e007800b00890005040800080
:10510c00808f5000030036001e007800300890009d
:10511c00504088001e81e8001e0078003008900086
:10512c006a00b90080007800e03c23000080400059
:10513c0082007800b81507001e007800b0089000b7
:10514c000040800030089000808f50000200390031
:10515c00100020008040880050a081000000e0007a
:10516c00dcff3a001e0078000000e0000100320075
:10517c00e701070071408000210798002e00900085
:10518c000000e0000c003200380007000000e000d6
:10519c000200320010002000804088002e00900099
:1051ac000000e900200798002e0090000000e000ad
:1051bc00f5ff3a000e28ef00804080000000e00070
:1051cc0005003200100020001007980074590200ee
:1051dc000000000000000000611507001e00900098
:1051ec000080fa00000006000200fa004f150700cc
:1051fc0041408000010f7800591507001e0078000f
:10520c000080fa00000006000400fa000000eb0029
:10521c00000f780041408000110798001e0090009c
:10522c000080fa00000006000000fa003040800008
:10523c000080fa00000006000400fa001007980035
:10524c001e0090000000e00002003a0000408000c8
:10525c00010037001e009000000f78009e007800bf
:10526c007a8040000080fa00000006000a00fa0074
:10527c000000eb00000f7800d04080000000e00040
:10528c005e003a00404080000000e80010079800e3
:10529c009e009000414088001e0090000000e0003d
:1052ac000a003a001140800021079800204080003d
:1052bc0010408800ae009000214088009040800093
:1052cc000000e8009040880091010700b040800089
:1052dc009e009000808f50003c0039000100370088
:1052ec000000000010408000100078000000e0007a
:1052fc0003003a000080eb00b04088003300370018
:10530c001040800030009000300090003007980072
:10531c003e00900090009000410798009e00900085
:10532c004e009000808f500003003100ce009000a2
:10533c00b1408800250037003e0090000080e80056
:10534c00851507003e009000200890000000e0004a
:10535c00030032003e0090006c0040007e150700f8
:10536c003e009000b008900050408000808f5000ac
:10537c00030036003e00900030089000504088003a
:10538c003e0090000081e8003e0090003008900044
:10539c006a00b90080007800e03c230000804000e7
:1053ac00820078001c1507003e009000b0089000a9
:1053bc000040800030089000808f5000c8ff3900fa
:1053cc0010002000000f7800c6ff3700004080005e
:1053dc00300890006a00b90080007800e03c23009f
:1053ec000080400010007800e10f500006003600ed
:1053fc0010002000000f7800030037007040800080
:10540c000000e80070408800804080000000e00050
:10541c000200320010002000000f78001e007800ff
:10542c000080fa00000006000600fa00d040800060
:10543c000000e000030032001000200080408800d3
:10544c00390037001028ef000040800070089000f1
:10545c00100798001e009000740050001007980070
:10546c0042012000d1352a001e009000e4ed070017
:10547c000000e0000400320000408000fa00400010
:10548c0000408000c40f070051408000010f7800dd
:10549c00010037001e0fe9001e0078006a00b900f9
:1054ac0080007800e03c2300008040001000780071
:1054bc000000e000f7ff32001e0078006a00b9001f
:1054cc0080007800e03c230000804000200798001a
:1054dc002e00900010009000900090002e00900084
:1054ec00110098002e009000900090002e0090006b
:1054fc0064004000808f500005003a002e009000a0
:10550c0010009000900090002e0090001100980068
:10551c002e00900010009000300090000040880099
:10552c009e007800514088000080fa0000000600c0
:10553c000400fa00000f780011079800004080006a
:10554c006c004000800078001e007800d01407002a
:10555c00110020001e009000f50207000080fa00e8
:10556c00000006000600fa00000f780011079800f2
:10557c0022079800004080001e01900001002800c6
:10558c008280700061009800004080006c00400038
:10559c00800078001e0078009f1407001100200086
:1055ac002e009000e20207000080fa0000000600c6
:1055bc000600fa00200798002e00900030009000a2
:1055cc0030009000100798001e0090006c00400006
:1055dc00e1140700d04080000000e00016003a0003
:1055ec001e0090000080e800db1407001e009000f5
:1055fc00b008900050408000808f500003003600af
:10560c001e00900030089000504088001e00900052
:10561c000081e8001e009000300890006a00b9007c
:10562c0080007800e03c230000804000820078007d
:10563c0079140700050037001e0090006c00400034
